:100000000C94E4000C940C010C940C010C940C0165
:100010000C940C010C940C010C940C010C940C012C
:100020000C940C010C940C010C940C010C94B5096B
:100030000C94A10B0C940C010C940C010C940C016D
:100040000C9403100C940C010C942D110C940C01C5
:100050000C940C010C940C010C940C010C940C01EC
:100060000C940C010C940C0153616D706C65207242
:1000700061746520746F6F206869676821004D6F37
:100080007265207468616E20313620626974732055
:100090007065722073616D706C6521004E6F742005
:1000A0006D6F6E6F2F73746572656F2100436F6D96
:1000B0007072657373696F6E206E6F7420737570E4
:1000C000706F7274656400436F6D707265737369ED
:1000D0006F6E206E6F7420737570706F72746564CC
:1000E0000043616E2774206F70656E20726F6F74AD
:1000F00020646972210043616E2774206F70656E01
:1001000020726F6F742064697221002C20747970E2
:100110006520697320464154005573696E672070ED
:100120006172746974696F6E20004E6F2076616C25
:1001300069642046415420706172746974696F6EFD
:1001400021004361726420696E69742E20666169C2
:100150006C656421002C20000A0D534420492F4F68
:10016000206572726F723A200000000000240027A0
:10017000002A0000000000250028002B00000000DD
:1001800000230026002900040404040404040402DB
:100190000202020202030303030303010204081024
:1001A00020408001020408102001020408102000F1
:1001B0000000070002010000030406000000000028
:1001C00000000000CE0C761211241FBECFEFD8E045
:1001D000DEBFCDBF12E0A0E0B1E0E6E1F9E202C08F
:1001E00005900D92A632B107D9F716E0A6E2B2E06B
:1001F00001C01D92AD31B107E1F711E0C8ECD1E0CB
:1002000004C02297FE010E948514C43CD107C9F79F
:100210000E94F70F0C9489140C940000FB01DC0180
:100220004150504030F08D910190801919F4002018
:10023000B9F7881B990B0895F999FECF72BD61BD7E
:10024000F89A80B50895F999FECF1FBA72BD61BDC5
:1002500040BD0FB6F894FA9AF99A0FBE089520E0BF
:10026000FC018681882309F421E0822F0895CF9331
:10027000DF93EC0140E050E00EC08D9181932F5F41
:100280003F4F26303105C9F76A5F7F4F4F5F5F4FA1
:100290004A30510571F0FA01EE0FFF1FE40FF51F10
:1002A000EE0FFF1F3B96EC0FFD1FDB0120E030E05F
:1002B000E4CF81E08E83DF91CF910895AF92BF921A
:1002C000CF92DF92EF92FF920F931F93CF93DF9322
:1002D000EC016A017B018C8161E00E94E0100FE07B
:1002E00010E021E0A22EB12C8A8160E00E94E01093
:1002F00060E0C501002E02C0880F991F0A94E2F742
:10030000AA2797FDA095BA2F8C219D21AE21BF2150
:100310000097A105B10509F061E088810E94E01015
:100320008A8161E00E94E010015010408FEF0F3F82
:100330001807D1F68A8160E00E94E0108A8161E0AE
:100340000E94E0108C8160E00E94E010DF91CF916C
:100350001F910F91FF90EF90DF90CF90BF90AF90E3
:100360000895CF93DF93EC010E9456102F813885BA
:1003700049855A85621B730B840B950B655F714031
:100380008040904018F423E030E01DC0FE01E75BA0
:10039000FF4F8081918101969183808302978CF039
:1003A00011821082FE01E95BFF4F808191810196ED
:1003B000918380830A972CF01182108220E030E034
:1003C00002C022E030E0C901DF91CF9108950F9380
:1003D0001F93CF93DF93EC01C95BDF4F0991199114
:1003E000A881B981C954D040D096F801EE0FFF1F03
:1003F000E00FF11FEE0FFF1F3B96EC0FFD1F40E0DB
:1004000050E060E070E020E030E0440F551F661FD0
:10041000771F8081992787FD9095A817B90724F445
:100420004F5F5F4F6F4F7F4F2F5F3F4F31962630AB
:10043000310559F73AE0440F551F661F771F3A956B
:10044000D1F781E090E0A0E0B0E004C0880F991FF0
:10045000AA1FBB1F0A95D2F780959095A095B095DD
:100460009370A070B070482B592B6A2B7B2BCE0158
:100470000E945E010E9456106F83788789879A8751
:1004800083E090E0DF91CF911F910F9108950F933A
:100490001F938C01095B1F4FF801119211928F017C
:1004A00011821082095410400E945610F80167838F
:1004B00070878187928782E090E01F910F91089565
:1004C000CF93DF93EC018E81823059F0833069F055
:1004D000813019F020E030E00CC0CE010E944702CC
:1004E00007C0CE010E94E70103C0CE010E94B10106
:1004F0009C018E81992787FD90952817390709F06F
:100500002E83DF91CF910895FC01E55BFF4F808141
:10051000EB54F040882319F4CF010E946002089543
:100520000F931F93CF93DF93EC01F8948C01055B3D
:100530001F4FF8018081882379F40E9456102F8183
:10054000388549855A85621B730B840B950B623085
:1005500071058105910510F478940CC081E0F801D3
:1005600080837894CE010E946002F894C55BDF4FCF
:1005700018827894DF91CF911F910F9108950F9376
:100580001F938C01862FF80160837183538342830C
:10059000358324831782108611861286055B1F4FD0
:1005A000F80110820B54104061E00E94C010F80165
:1005B000828161E00E94C010F801848161E00E94A4
:1005C000C0101F910F910895FC0185859685A78520
:1005D000B08985839683A783B08711861286138698
:1005E000148608952F923F924F925F926F927F925E
:1005F0008F929F92AF92BF92CF92DF92EF92FF9233
:100600000F931F93DF93CF93CDB7DEB7A5970FB6A8
:10061000F894DEBF0FBECDBF2C01FC01748B638B41
:10062000442321F46624772443013AC0453008F07E
:1006300007C1242F30E0A4E0220F331FAA95E1F771
:1006400022553E4FCB0140E050E060E070E04E01AB
:100650000894811C911C8401F0E1EF2EF12C0E9482
:100660001B08882309F4ECC0898190E08F77907093
:10067000892B09F0E5C0F40184859585A685B785A9
:1006800084369105A105B10508F4DAC0608471844F
:1006900082849384611471048104910409F4D0C0AC
:1006A000F20183899489B401A3012BE030E01E019B
:1006B0000894211C311C8101E5E2EE2EF12C0E94F0
:1006C0001B08882309F4BCC089819A81805092401C
:1006D00009F0B6C0F1015581552309F4B1C08381F9
:1006E0009481892B09F4ACC04281442309F4A8C049
:1006F000242F30E0C901019782239323892B09F02D
:100700009FC0F20155874083F1012385348521156F
:10071000310519F040E050E005C0F101218D328D26
:10072000438D548DF2012183328343835483F1013D
:10073000E680F780F201F68AE58AF101A380B480B1
:10074000CC24DD24A60CB71CC81CD91CF201A6863B
:10075000B786C08AD18AF101658170E080E090E0BF
:100760000E9400146A0D7B1D8C1D9D1DF201678B7C
:10077000708F818F928F35E0EE0CFF1C3A95E1F778
:100780002FEF31E0E20EF31EEF2CFF24E69400E0A1
:1007900010E06E0D7F1D801F911F61877287838718
:1007A0009487F10180859185009721F09C0140E0BC
:1007B00050E005C0F101258936894789508DF20145
:1007C000238F348F458F568F81859285A385B4857D
:1007D000681A790A8A0A9B0A620E731E841E951E85
:1007E000F101228130E040E050E0C401B3010E94F9
:1007F0003214C901DA01F20185839683A783B08799
:10080000853FFFE09F07F0E0AF07F0E0BF0710F47F
:100810008CE006C0855F9F4FA040B04028F480E187
:10082000F201828B81E00DC0F10181A192A1A3A10F
:10083000B4A1F201878B908FA18FB28F80E2F1CFAC
:1008400080E0A5960FB6F894DEBF0FBECDBFCF9166
:10085000DF911F910F91FF90EF90DF90CF90BF90AD
:10086000AF909F908F907F906F905F904F903F9050
:100870002F9008952F923F924F925F926F927F92A6
:100880008F929F92AF92BF92CF92DF92EF92FF92A0
:100890000F931F93CF93DF933C011B01DC0119964B
:1008A000AD90BD90CD90DC901C97F5011FEF412ECF
:1008B00011E0512E4A205B2060E072E06419750956
:1008C0004A016417750708F44B01D3011196ED90A6
:1008D000FD900D911C911497940140E050E0D801D7
:1008E000C7018A199B09AC09BD0982179307A407A0
:1008F000B50718F447018E1A9F0AF3018081B9E009
:10090000D694C794B794A794BA95D1F7C189D289E0
:10091000823049F44F89588D698D7A8D4A0D5B1D5F
:100920006C1D7D1D2CC0E8806E2D70E080E090E095
:10093000D30115962D913D914D915C9118972250C0
:100940003040404050400E940014AB01BC018985FA
:100950009A85AB85BC85480F591F6A1F7B1FFF24F2
:100960000894E108F1080027F7FC0095102FEA2011
:10097000FB200C211D214E0D5F1D601F711FD30137
:100980005196ED91FC91529783899489920181014E
:1009900074010E941B08882319F42FEF3FEF01C058
:1009A0009401C901DF91CF911F910F91FF90EF90BA
:1009B000DF90CF90BF90AF909F908F907F906F907F
:1009C0005F904F903F902F900895EF92FF920F937A
:1009D0001F93DF93CF9300D000D000D0CDB7DEB708
:1009E000FC018A019B01423051056105710508F443
:1009F0005AC085819681A781B0850296A11DB11D3F
:100A0000481759076A077B0708F04DC08289803272
:100A100031F5B7E07695679557954795BA95D1F733
:100A200086859785A089B189480F591F6A1F7B1F4A
:100A30009801220F331F220F331F3170838994894D
:100A40008E010D5F1F4FE4E0EE2EF12C0E941B087B
:100A5000882349F12B813C814D815E8128C0803102
:100A600011F5452F562F672F772786859785A08903
:100A7000B189480F591F6A1F7B1F9801220F331F2E
:100A80003170838994898E010F5F1F4FE2E0EE2E53
:100A9000F12C0E941B08882331F089819A819C01E6
:100AA00040E050E004C020E030E040E050E0B90118
:100AB000CA0126960FB6F894DEBF0FBECDBFCF9108
:100AC000DF911F910F91FF90EF900895AF92BF9229
:100AD000CF92DF92EF92FF920F931F93CF93DF930A
:100AE0006C01EE24FF24870110C0F60180815E01B5
:100AF000880FB82EE501C0E0CE01AA2797FDA0958A
:100B0000BA2FE80EF91E0A1F1B1FC6010E94E5043A
:100B1000AB01BC01411551056105710531F7B70104
:100B2000C801DF91CF911F910F91FF90EF90DF905F
:100B3000CF90BF90AF9008950F931F93CF93DF9303
:100B4000EC018B01FB0182898031B1F482E0888362
:100B50001D861E861F86188A85899689A0E0B0E0CA
:100B600025E0880F991FAA1FBB1F2A95D1F78983FB
:100B70009A83AB83BC8316C0803211F080E021C021
:100B800083E08883FB014789508D618D728D4D878D
:100B90005E876F87788BC8010E94660569837A83B8
:100BA0008B839C831A8B098B8D859E85AF85B88935
:100BB0008D839E83AF83B88719861A861B861C8611
:100BC00081E0DF91CF911F910F9108950F931F93B3
:100BD000CF93DF93EC018B01FA01DB0152968C91EC
:100BE000803108F446C08081882309F442C0853EE4
:100BF00009F43FC084899589A0E0B0E0BC01552785
:100C00004427828D938DA0E0B0E0480F591F6A1FE2
:100C10007B1F4D875E876F87788B838590E0887117
:100C20009070009759F481E08883848D958DA68D0E
:100C3000B78D89839A83AB83BC830BC04097C9F47B
:100C400084E08883C8010E94660569837A838B8368
:100C50009C831A8B098B8D859E85AF85B8898D8382
:100C60009E83AF83B88719861A861B861C8681E00F
:100C700001C080E0DF91CF911F910F9108956F9295
:100C80007F928F929F92AF92BF92CF92DF92EF921C
:100C9000FF920F931F93CF93DF93EC01A984BA8443
:100CA000CB84DC844A0D5B1D6C1D7D1D89819A817E
:100CB000AB81BC8184179507A607B70708F450C01D
:100CC000E989FA89E08049875A876B877C87888120
:100CD000823009F447C0FF2400E010E0E9E0769597
:100CE000679557954795EA95D1F7CB01BA01A801C9
:100CF00097010E94321439014A0149E0D694C79401
:100D0000B794A7944A95D1F7C601B501A8019701F8
:100D10000E943214621A730A840A950A1BC0EB8976
:100D2000FC89309709F009954D815E816F81788546
:100D300089899A890E94E5046D837E838F839887D1
:100D40000894610871088108910861157105810591
:100D5000910531F0611471048104910401F702C01E
:100D600080E001C081E0DF91CF911F910F91FF9052
:100D7000EF90DF90CF90BF90AF909F908F907F903B
:100D80006F900895AF92BF92CF92DF92EF92FF9251
:100D90000F931F93CF93DF937C016B015A0100E007
:100DA00010E00FC00995AE01662757FD6095762FBC
:100DB000C7010E943F068823A1F0CC0EDD1E0C0F58
:100DC0001D1F0A151B05C0F4A501401B510BC701CF
:100DD000B6010E943A04EC01181619062CF097FF90
:100DE0000BC02FEF3FEF09C0D7015396ED91FC9157
:100DF00054973097B9F6D7CF9801C901DF91CF91B9
:100E00001F910F91FF90EF90DF90CF90BF90AF9028
:100E10000895DF92EF92FF920F931F93CF93DF938A
:100E20008C01EB01DC018C91823018F4FF24FA94E0
:100E300028C0D62EED2E0CC009958881853E41F044
:100E40008B8590E0887190700097D9F04097C9F039
:100E5000C8016D2D7E2D40E250E00E94C206F82EA2
:100E6000B0E28B1759F48881882351F0D80153964A
:100E7000ED91FC9154973097F9F6DFCF18160CF4EA
:100E8000FF248F2DDF91CF911F910F91FF90EF9055
:100E9000DF900895CF93DF93EB018EBD04C02097C0
:100EA00011F0FE0109950DB407FEF9CFDF91CF9146
:100EB0000895BC018FEF0E944A078EB508950F93E5
:100EC0001F93CF93DF938C01C0E0D0E0F8018485BD
:100ED00095850E945907982F8F3F31F4F7E2C03172
:100EE000DF0731F02196F2CF8E3F11F481E005C08B
:100EF00080E1F8018483958380E0DF91CF911F9199
:100F00000F9108951F93CF93DF93EC018E81882377
:100F100049F18FEF8EBD1FEF0EC0EC85FD85309738
:100F200009F009950DB407FEF8CF1EBDEC85FD85CF
:100F3000309709F009958F819885019698878F835E
:100F400001978150924070F305C0EC85FD85309784
:100F500009F009950DB407FEF8CF8AE061E00E9420
:100F6000E0101E82DF91CF911F910895AF92BF9242
:100F7000CF92DF92EF92FF920F931F93CF93DF9365
:100F80007C01162F59016A010E9482078AE060E005
:100F90000E94E010D7011C968D919C911D970E9494
:100FA0005907F70164857585812F80640E944A077F
:100FB000D7011C96ED91FC911D97309709F009958A
:100FC000C8E1D0E0D601C5010C2E04C0B695A795A6
:100FD000979587950A94D2F7F701648575850E94E5
:100FE0004A072897FFEFC83FDF0761F7D7011C9634
:100FF0006D917C911D97802F0E944A07D7011C9606
:10100000ED91FC911D97309709F0099510E0F701DB
:10101000848595850E9459078F3F11F41150B9F7C7
:10102000DF91CF911F910F91FF90EF90DF90CF90C4
:10103000BF90AF9008956F927F928F929F92AF92E0
:10104000BF92CF92DF92EF92FF920F931F93CF93B5
:10105000DF93EC015A016B0149013801E114F104FD
:1010600009F495C0C701820F931F8150924008F088
:1010700090C08E81882371F088819981AA81BB817B
:10108000481759076A077B0729F48F8198858816C6
:10109000990620F5A882B982CA82DB828B858330CB
:1010A00039F089E0AA0CBB1CCC1CDD1C8A95D1F759
:1010B000CE0161E1A60195010FEF0E94B6078823DA
:1010C00019F083E08C8365C0CE010E945F078823FE
:1010D00009F45FC018861F8281E08E838FEF8EBD7A
:1010E0001FEF0EC0EC85FD85309709F009950DB412
:1010F00007FEF8CF1EBD8F819885019698878F8354
:101100008F8198858815990590F3EC85FD8530973A
:1011100009F0099567010894C108D10800E010E0C2
:10112000BB24BA9415C0EC85FD85309709F009956C
:101130000DB407FEF8CF8EB5F301E00FF11F8083E9
:10114000BEBCEC85FD85309709F009950F5F1F4FF8
:101150000C151D0568F30DB407FEFDCFEC85FD856C
:10116000309709F009958EB5C60CD71CF60180831F
:101170002F8138852E0D3F1D38872F838985882341
:1011800019F02050324018F0CE010E94820781E011
:1011900001C080E0DF91CF911F910F91FF90EF9000
:1011A000DF90CF90BF90AF909F908F907F906F9087
:1011B0000895DF92EF92FF920F931F93CF93DF93E7
:1011C0007C01D62E8AE061E00E94C0108AE061E0D6
:1011D0000E94E0108BE061E00E94C0108DE061E0B1
:1011E0000E94C01083E58CBD00E0F7016485758521
:1011F0008FEF0E944A070F5F0A30B9F78AE060E07C
:101200000E94E010C0E0D0E0F701848595850E943F
:1012100059072196F2E0C130DF07B1F7C70160E05E
:1012200020E030E040E050E005E90E94B607182FCA
:10123000CFEFDFEF0BC0209711F481E060C0F70122
:10124000848595850E945907182F2197113099F7A9
:10125000C70168E02AEA31E040E050E007E80E9478
:10126000B607982F813069F400E0F70184859585F1
:101270000E9459070F5F0430C1F782E0F7018387AE
:1012800004C082FF05C0F7011387C0E0D0E006C0AC
:1012900082E0F7018483958380E05FC0C70167E344
:1012A00020E030E040E050E00FEF0E94B607F70189
:1012B0008385823029F020E030E040E050E004C037
:1012C00020E030E040E050E4C70169E20FEF0E9407
:1012D000B607882341F0F3E0C83EDF0711F486E04B
:1012E0000EC02196DBCFC7016AE320E030E040E08A
:1012F00050E00FEF0E94B607882321F085E0F70148
:101300008483CACFF701848595850E945907082FE9
:10131000F701848595850E945907F7018485958595
:101320000E945907F701848595850E945907F701A6
:101330008385823029F4007C003C11F483E08387AC
:101340008CB58C7F8CBDDD2019F48DB581608DBD91
:101350008AE061E00E94E01081E0DF91CF911F916F
:101360000F91FF90EF90DF9008951F920F920FB6AC
:101370000F9211242F933F934F938F939F93AF938B
:10138000BF93EF93FF93E0912702F09128023097EB
:1013900009F4A8C020912D0430912E0480912F04CF
:1013A000909130042817390709F047C08091320422
:1013B0008823B9F18091290490912A0429E233E02D
:1013C00042E08932940749F430932A042093290497
:1013D00090932C0480932B040AC089E292E09093AE
:1013E0002A048093290430932C0420932B048091A9
:1013F000290490912A0490932E0480932D04805008
:101400009F4F9093300480932F0410923204809168
:101410003104882391F480916F00846080936F0081
:101420000CC083859485A585B6850196A11DB11D47
:1014300083879487A587B68755C05A985C985B9A2E
:101440005B985C9A5B9A5B985B9A5B985B9A5B98FB
:101450008581803119F5E0912D04F0912E04818170
:10146000805890E087FF02C05C9A01C05C985B9A4C
:101470005B989F5F983011F0880FF4CF908180E0E7
:1014800097FF02C05C9A01C05C985B9A5B988F5F83
:10149000843011F0990FF4CF32961DC08830F9F4E2
:1014A000E0912D04F0912E04908180E097FF02C01E
:1014B0005C9A01C05C985B9A5B988F5F883011F0F2
:1014C000990FF4CF5B9A5B985B9A5B985B9A5B98F9
:1014D0005B9A5B983196F0932E04E0932D045A9A10
:1014E0005D985D9AFF91EF91BF91AF919F918F9120
:1014F0004F913F912F910F900FBE0F901F90189515
:1015000008958F929F92AF92BF92CF92DF92EF9207
:10151000FF920F931F93DF93CF9300D000D00F92D1
:10152000CDB7DEB77C015B01942E852EFC01868150
:101530009781A085B1850097A105B10599F587012F
:101540000A5F1F4F6E010894C11CD11CF7018785EB
:101550009089B60144E050E00E94C206049709F069
:1015600055C01D82F70187859089B80144E050E09D
:101570000E94C206049709F049C0C60160E071E00C
:1015800044E050E00E940E01009761F0F7014681AF
:10159000578160857185878590890E943F068823E1
:1015A000A9F634C0892D982D9C018901F2E02130E3
:1015B0003F0710F000E012E0F701268137814085F7
:1015C0005185C801A0E0B0E0281739074A075B073A
:1015D00008F48901F70187859089B501A8010E9467
:1015E000C206BC018017910799F4980140E050E0D1
:1015F000F70186819781A085B185821B930BA40B8F
:10160000B50B86839783A087B18702C060E070E046
:10161000CB010F900F900F900F900F90CF91DF9113
:101620001F910F91FF90EF90DF90CF90BF90AF9000
:101630009F908F900895BF92CF92DF92EF92FF928A
:101640000F931F93CF93DF93EC01C980DA80EB8077
:10165000FC80B880909328028093270209E212E070
:1016600010932E0400932D04B80142E050E00E9434
:10167000810A181619060CF05AC080912D04909119
:101680002E0402969093300480932F04EF85F889FE
:10169000818540E051E0481B5109809127029091DB
:1016A0002802B8016E5F7F4F0E94810A9C011816C4
:1016B0001906ECF580912F0490913004820F931F4E
:1016C0009093300480932F048091270290912802F8
:1016D00069E273E040E051E00E94810A81E080937A
:1016E00032048A871092800089E0809381006B2DFC
:1016F00070E080E090E0A70196010E9400149B0139
:10170000AC0160E07DE281E391E00E94321430930D
:1017100089002093880081E090E090938B00809373
:101720008A0080916F00826080936F007894DF91CF
:10173000CF911F910F91FF90EF90DF90CF90BF90CE
:1017400008951F920F920FB60F9211242F933F937B
:101750004F935F936F937F938F939F93AF93BF93B9
:10176000EF93FF9380916F008B7F80936F00809148
:101770003204882339F581E08093310478946091B4
:101780002B0470912C04809127029091280240E054
:1017900051E00E94810A892B71F480916F008D7F46
:1017A00080936F00E0912702F09128021286109238
:1017B000280210922702F8941092310481E080935D
:1017C00032047894FF91EF91BF91AF919F918F91E7
:1017D0007F916F915F914F913F912F910F900FBE2D
:1017E0000F901F901895AF92BF92CF92DF92EF9219
:1017F000FF920F931F93DF93CF93CDB7DEB762971E
:101800000FB6F894DEBF0FBECDBF7C015B016E0149
:101810000894C11CD11CCB01B6014CE050E00E94E1
:10182000C2060C9709F06EC0C60165E071E044E0A5
:1018300050E00E940E01009709F064C0CE010996A5
:101840006AE071E044E050E00E940E01009709F068
:1018500059C06AC0C6016FE071E044E050E00E94E8
:101860000E01009709F04EC068C00231110519F051
:1018700087EC90E045C0C501B601A8010E94C206F0
:101880008017910709F03EC089819A81019739F448
:101890000231110539F489899A89892B19F08DEA69
:1018A00090E02EC03B81F7013083333018F08CE993
:1018B00090E026C08D819E81AF81B885F70181833C
:1018C0009283A383B4832F852583213118F08EE77B
:1018D00090E016C08332F6E59F07F0E0AF07F0E036
:1018E000BF0718F0293050F407C081589E43A0402C
:1018F000B04050F1293040F1323030F188E690E0CC
:101900000E94C70C80E062960FB6F894DEBF0FBE4F
:10191000CDBFCF91DF911F910F91FF90EF90DF909E
:10192000CF90BF90AF900895C501B60148E050E058
:101930000E94C206089731F78DCF0D811E810031BC
:10194000110509F092CF97CFF70116821782108602
:101950001186B08AA7861386148615861686128687
:1019600081E0D1CF1F93CF93DF93EC0110E005C04E
:1019700086E096E00E94E7121F5FFE01E10FF11D75
:1019800064916623A9F7DF91CF911F9108950E947A
:10199000B20C86E096E00E94FF1208951092370480
:1019A0001092390410923C0410923E041092530499
:1019B00010924F051092640581E894E00E94800A1D
:1019C000109292041092EE0483E095E067E070E0DC
:1019D00048E050E026E030E00E94BF020895AF9258
:1019E000BF92CF92DF92EF92FF920F931F936C0101
:1019F00006E212E0C801B6010E941C01B82EB60131
:101A00006F5F7F4FC8010E941C01182F00E00B0D73
:101A1000111D86E0A82E86E0B82EC50164E171E0B4
:101A20000E94F712A801662757FD6095762FC50121
:101A30002AE030E00E94E013C50167E271E00E94F5
:101A4000F712EE24D7FCE094FE2CC501B701A601E5
:101A50002AE030E00E94F513C8011F910F91FF901A
:101A6000EF90DF90CF90BF90AF900895EF92FF92EC
:101A70001F93CF93DF937C01EC0110E088818032CB
:101A800061F0183029F486E096E06EE20E94EF12D1
:101A900086E096E068810E94E7121F5F21961B3066
:101AA00069F7F70183858871803129F486E096E033
:101AB0006FE20E94EF12DF91CF911F91FF90EF90A4
:101AC0000895CF92DF92EF92FF920F931F937C01C4
:101AD0006B0106E016E0C80163E371E00E94F712B3
:101AE000A601662757FD6095762FC8012AE030E0F1
:101AF0000E94E013C80167E271E00E94F712A7019B
:101B0000662757FD6095762FC8012AE030E00E94D5
:101B1000F51306E212E0C801B7014C2D0E94230123
:101B20000894E11CF11CC801B7014D2D0E9423014E
:101B30001F910F91FF90EF90DF90CF9008950F933A
:101B40001F93CF93DF9380918B04882309F061C0AA
:101B500082E090E00E94EF0C8C0184E695E00E9408
:101B6000E402C0E0D0E008C0809161048E3221F030
:101B700021960C171D075CF084E695E061E674E0A1
:101B80000E940907181684F3C0E0D0E03DC08091A0
:101B90006C048871803169F080916904873549F45B
:101BA00080916A04813429F480916B04863509F4AC
:101BB00019C186E096E06DE371E004C086E096E02E
:101BC0006EE471E00E94F71281E694E00E94360D07
:101BD0001BC081E894E06FE475E00E94F30B88235A
:101BE00029F486E096E068E671E0ECCF86E096E0C6
:101BF0006BE771E00E94F71281E694E00E94360DD7
:101C000081E894E00E941B0B82E090E0BE010E94FC
:101C1000610D83E095E00E94900283E095E00E94D0
:101C20002F01882309F4FEC00E9448102091A704C8
:101C30003091A8044091A9045091AA04621B730B2F
:101C4000840B950B2091AB043091AC04442737FDF5
:101C50004095542F621773078407950738F483E083
:101C600095E061EB74E00E943701DCC00E944810EF
:101C70006093A7047093A8048093A9049093AA0486
:101C800080919204813009F055C0F89482E994E083
:101C90006DEA74E041E450E00E94C206EC017894E1
:101CA00081349105C9F086E096E06EE871E00E940B
:101CB000F712AE01662757FD6095762F86E096E015
:101CC0002AE030E00E94E01386E096E06BE971E0E4
:101CD0000E941613109292042091B004332727FD1E
:101CE0003095205D34418091AE0444E68402C00109
:101CF0001124280F391F8091AF044AE08402C001EB
:101D00001124280F391F8091AD04992787FD9095E4
:101D1000C09748EE53E0BC01649FC001659F900DE1
:101D2000749F900D1124280F391F3093AC04209319
:101D3000AB0478C0F8948EEE94E00E94E40284E054
:101D400090E00E94EF0C8C01C0E0D0E02FC08091A9
:101D500061048E3259F1219680916C048871803132
:101D600029F1809169048C3409F580916A048534E5
:101D7000E9F480916B048434C9F440C082E994E0B2
:101D800061E474E041E654E00E94E605882339F4FA
:101D900086E096E061EB71E00E94161307C086E0D2
:101DA00096E066EC71E00E94161309C08EEE94E096
:101DB00061E674E00E94090718164CF2E801809170
:101DC0009204813041F086E096E067ED71E00E9478
:101DD0001613C0E0D0E084E090E0BE010E94610DE7
:101DE000789420C08FE495E061E474E041E654E02B
:101DF0000E94E605882309F4E1CEEBCE86E096E06A
:101E000065EF71E00E94F71281E694E00E94360DC2
:101E100086E096E066E072E00E9416130C171D073C
:101E20002CF6ACCFDF91CF911F910F910895809147
:101E300037048823F9F088E591E00E94B20C4091C4
:101E4000370450E060E070E086E096E020E130E0AA
:101E50000E94E01385E591E00E94B20C40913804A5
:101E600050E060E070E086E096E020E130E00E9423
:101E7000F513FFCF08951F93DF93CF9300D0CDB715
:101E8000DEB786E096E040E855E260E070E00E9450
:101E90006A1186E096E067E072E00E94F7122091F6
:101EA000190630911A06CE0101962115310519F453
:101EB0008D51964002C0821B930B9A83898349817E
:101EC0005A81662757FD6095762F86E096E02AE0D6
:101ED00030E00E94E01386E096E00E94FF1286E068
:101EE00096E062E172E00E94161382E061E00E94D7
:101EF000C01083E061E00E94C01084E061E00E94B5
:101F0000C01085E061E00E94C01083E394E060E0CF
:101F10000E94D908882339F482E491E00E94C70C1A
:101F20000E94170FFFCF83E394E00E94820781E0B5
:101F300080933C0410E081E494E063E374E0412F7B
:101F40000E94F202882351F41F5F1530A1F78AE244
:101F500091E00E94C70C0E94170FFFCF89E191E02A
:101F60000E94B20C412F50E060E070E086E096E005
:101F70002AE030E00E94E0138BE091E00E94B20C76
:101F80004091530450E060E070E086E096E02AE083
:101F900030E00E94F51384E695E061E474E00E946D
:101FA0009C05882329F486EF90E00E94C70CFFCFA0
:101FB0008EEE94E061E474E00E949C05882329F48D
:101FC00081EE90E00E94C70CFFCF109260048EEF6C
:101FD0009FE0909363058093620590934004809303
:101FE0003F040F900F90CF91DF911F9108950E94B1
:101FF00086100E943B0F0E949F0DFDCF83E095E06D
:102000000E94840208951F920F920FB60F9211241E
:102010002F933F938F939F93AF93BF9380917D05B1
:1020200090917E05A0917F05B0918005309181054A
:10203000232F2A592D3720F02D570196A11DB11DB0
:102040002093810580937D0590937E05A0937F0565
:10205000B09380058091790590917A05A0917B05D8
:10206000B0917C050196A11DB11D809379059093D7
:102070007A05A0937B05B0937C05BF91AF919F91AA
:102080008F913F912F910F900FBE0F901F90189539
:102090008FB7F89420917D0530917E0540917F05A2
:1020A000509180058FBFB901CA0108956FB7F894A8
:1020B00086B5282F30E040E050E0A89B09C02115EC
:1020C00031054105510521F420E031E040E050E0C8
:1020D0008091790590917A05A0917B05B0917C055E
:1020E0006FBFBA2FA92F982F8827820F931FA41F85
:1020F000B51F9C01AD01220F331F441F551F280F30
:10210000391F4A1F5B1FB901CA010895789484B52D
:10211000826084BD84B5816084BD85B5826085BDE3
:1021200085B5816085BDEEE6F0E0808181608083C9
:10213000E1E8F0E08081826080838081816080833B
:10214000E0E8F0E0808181608083E1EBF0E0808175
:1021500084608083E0EBF0E0808181608083EAE747
:10216000F0E08081846080838081826080838081D0
:10217000816080838081806880831092C10008958F
:10218000282F30E0C90185569E4FFC0194912957B4
:102190003E4FF9018491882391F0E82FF0E0EE0F93
:1021A000FF1FE759FE4FA591B491662329F48C9146
:1021B000909589238C9308958C91892B8C93089505
:1021C000482F50E0CA0181559E4FFC012491CA015D
:1021D00085569E4FFC01949149575E4FFA01349108
:1021E0003323D1F1222331F1233021F48091800077
:1021F0008F7705C0243031F4809180008F7D8093EB
:10220000800018C0213019F484B58F7704C02230C3
:1022100021F484B58F7D84BD0DC0263021F48091DA
:10222000B0008F7705C0273029F48091B0008F7DF2
:102230008093B000E32FF0E0EE0FFF1FED58FE4F4C
:10224000A591B491662329F48C91909589238C9360
:1022500008958C91892B8C9308951F920F920FB63D
:102260000F9211242F933F934F935F936F937F931C
:102270008F939F93AF93BF93EF93FF934091C600CB
:10228000E0910206F0910306CF01019660E870E04C
:102290000E941F149C018091040690910506281746
:1022A000390739F0EE57FA4F4083309303062093F5
:1022B0000206FF91EF91BF91AF919F918F917F9116
:1022C0006F915F914F913F912F910F900FBE0F90A3
:1022D0001F9018955F926F927F928F929F92AF920C
:1022E000BF92CF92DF92EF92FF920F931F93CF9303
:1022F000DF93EC013A014B01413D82E1580783E154
:10230000680780E078070CF07FC060EA75E286E23B
:1023100090E0A40193010E945414215030404040A9
:102320005040CA01B90122E030E040E050E00E9494
:10233000541459016A01A6019501209530954095E4
:10234000509594E0220F331F441F551F9A95D1F7E3
:1023500060E07DE281E391E00E945414CA01B9017A
:102360002FEF30E040E050E00E940014A401930100
:102370000E945414C90181509F4F181619061CF46D
:10238000522E5A9403C055245394521A60E47BE4AD
:102390008CE490E0A40193010E9454142150304039
:1023A00040405040CA01B90122E030E040E050E036
:1023B0000E945414209530954095509583E0220F4B
:1023C000331F441F551F8A95D1F760E07DE281E3FA
:1023D00091E00E945414CA01B9012FEF30E040E0AF
:1023E00050E00E940014A40193010E945414C901FA
:1023F00081509F4F181619061CF4822F815002C07D
:1024000081E0821B851500F5E885F98581E090E083
:102410000A8802C0880F991F0A94E2F7808360E45B
:102420007BE48CE490E0A40193010E9454142150B9
:10243000304040405040CA01B90122E030E040E065
:1024400050E00E94541404C0E885F985108295017B
:10245000EC81FD813083EE81FF812083EA85FB855D
:10246000208141E050E0CA010E8402C0880F991F0C
:102470000A94E2F7282B2083EA85FB852081CA0194
:102480000F8402C0880F991F0A94E2F7282B20833B
:10249000EA85FB858081088802C0440F551F0A9495
:1024A000E2F7842B8083DF91CF911F910F91FF90F2
:1024B000EF90DF90CF90BF90AF909F908F907F90E4
:1024C0006F905F900895FC01A085B18521898C9162
:1024D00090E0022E02C0959587950A94E2F780FF5E
:1024E000F6CF0484F585E02D608308958FE192E0B6
:1024F000909307068093060682E895E0909309067C
:102500008093080685EC90E090930B0680930A0672
:1025100084EC90E090930D0680930C0680EC90E0A4
:1025200090930F0680930E0681EC90E09093110635
:102530008093100686EC90E0909313068093120629
:1025400084E08093140683E08093150687E08093EF
:10255000160685E08093170681E08093180608959B
:102560000F931F93CF93DF938C01EB0109C021964A
:10257000D801ED91FC910190F081E02DC801099501
:1025800068816623A1F7DF91CF911F910F91089584
:10259000EF92FF920F931F93CF93DF938C017B01F8
:1025A000EA010CC0D7016D917D01D801ED91FC913C
:1025B0000190F081E02DC80109952197209791F7AE
:1025C000DF91CF911F910F91FF90EF900895DC0163
:1025D000ED91FC910190F081E02D09950895DC01C9
:1025E000ED91FC910190F081E02D09950895DC01B9
:1025F000ED91FC910280F381E02D099508950F93F0
:102600001F938C01DC01ED91FC910190F081E02D94
:102610006DE00995D801ED91FC910190F081E02DDC
:10262000C8016AE009951F910F9108950F931F93B8
:102630008C010E94F712C8010E94FF121F910F9196
:1026400008952F923F924F925F926F927F928F9256
:102650009F92AF92BF92CF92DF92EF92FF920F9331
:102660001F93DF93CF93CDB7DEB7A0970FB6F89443
:10267000DEBF0FBECDBF1C016A017B0141155105B4
:102680006105710549F4DC01ED91FC910190F08147
:10269000E02D60E3099554C0882499245401422E0A
:1026A00055246624772401E010E00C0F1D1F080D4F
:1026B000191DC701B601A30192010E943214F8014D
:1026C00060830894811C911CA11CB11CC701B60138
:1026D000A30192010E943214C901DA016C017D014B
:1026E000C114D104E104F104F1F681E0E82EF12CEB
:1026F000EC0EFD1EE80CF91C3E010894611C711CD7
:10270000D501C4010197A109B1096C01C818D90804
:1027100014C0F601EE0DFF1D60816A3010F4605D9B
:1027200001C0695CD101ED91FC910190F081E02D37
:10273000C10109950894E108F1086E147F0449F776
:10274000A0960FB6F894DEBF0FBECDBFCF91DF913C
:102750001F910F91FF90EF90DF90CF90BF90AF90BF
:102760009F908F907F906F905F904F903F902F90B1
:102770000895EF92FF920F931F93CF93DF93EC0195
:102780007A018B0177FF0FC0E881F9810190F08118
:10279000E02D6DE2099510950095F094E094E11C10
:1027A000F11C011D111DCE01B801A7012AE00E94F4
:1027B0002113DF91CF911F910F91FF90EF9008951A
:1027C000DC012115310541F4ED91FC910190F0817E
:1027D000E02D642F099508952A30310519F40E94DF
:1027E000B91308950E94211308950F931F938C012C
:1027F0000E94E013C8010E94FF121F910F910895DB
:10280000629FD001739FF001829FE00DF11D649FD4
:10281000E00DF11D929FF00D839FF00D749FF00D60
:10282000659FF00D9927729FB00DE11DF91F639F01
:10283000B00DE11DF91FBD01CF011124089597FBD3
:10284000092E07260AD077FD04D049D006D00020F3
:102850001AF4709561957F4F0895F6F790958195DC
:102860009F4F0895A1E21A2EAA1BBB1BFD010DC0AC
:10287000AA1FBB1FEE1FFF1FA217B307E407F50730
:1028800020F0A21BB30BE40BF50B661F771F881F0C
:10289000991F1A9469F760957095809590959B01A2
:1028A000AC01BD01CF01089597FB092E05260ED07E
:1028B00057FD04D0D7DF0AD0001C38F4509540955E
:1028C000309521953F4F4F4F5F4F0895F6F7909504
:1028D0008095709561957F4F8F4F9F4F0895AA1BEC
:1028E000BB1B51E107C0AA1FBB1FA617B70710F0FB
:1028F000A61BB70B881F991F5A95A9F7809590952D
:10290000BC01CD010895EE0FFF1F0590F491E02D5D
:062910000994F894FFCFCA
:102916006461746100524946460057415645006657
:102926006D74200052657475726E696E67207265EB
:1029360073756C743A200020204164647265737369
:102946003A200053746F72696E673A20004E6F74B6
:102956002061205741562066696C653A2000466121
:10296600696C656420746F206F70656E20574156E0
:102976002066696C653A2000204E6F7420612076CF
:10298600616C6964205741563A2000506C61796940
:102996006E67205741562066696C653A2000476F7E
:1029A6007420726573756C743A20002E2020476F70
:1029B600696E6720746F206E6578742066696C6531
:1029C600006C65645F66696C652E6F70656E206667
:1029D60061696C6564004C65642046696C65204FCE
:1029E60070656E65642E0057726170706564207044
:1029F600617374206C6173742066696C6520666F00
:102A0600756E642E004C65642046696C6520666FA1
:102A1600756E643A200000467265652052616D3A13
:102A260020005374617274696E67000000000063D1
:062A360012B012C81200EC
:00000001FF
