:100000000C9463000C948B000C948B000C948B006C
:100010000C948B000C948B000C948B000C948B0034
:100020000C948B000C948B000C948B000C948B0024
:100030000C948B000C948B000C948B000C948B0014
:100040000C94E5020C948B000C940D040C948B0022
:100050000C948B000C948B000C948B000C948B00F4
:100060000C948B000C948B000000000024002700EF
:100070002A0000000000250028002B0000000000DE
:1000800023002600290004040404040404040202DA
:100090000202020203030303030301020408102007
:1000A0004080010204081020010204081020000012
:1000B0000007000201000003040600000000000029
:1000C0000000FD01560511241FBECFEFD8E0DEBFB2
:1000D000CDBF11E0A0E0B1E0E8EFFCE002C0059088
:1000E0000D92A431B107D9F711E0A4E1B1E001C04C
:1000F0001D92AF3FB107E1F710E0C6ECD0E004C0BD
:100100002297FE010E947606C23CD107C9F70E94E1
:10011000DE020C947A060C94000020E0FC0186813B
:10012000882309F421E0822F0895CF93DF93EC0117
:1001300040E050E00EC08D9181932F5F3F4F2630FD
:100140003105C9F76A5F7F4F4F5F5F4F4A305105F6
:1001500071F0FA01EE0FFF1FE40FF51FEE0FFF1F06
:100160003B96EC0FFD1FDB0120E030E0E4CF81E0A7
:100170008E83DF91CF910895AF92BF92CF92DF929D
:10018000EF92FF920F931F93CF93DF93EC016A01DD
:100190007B018C8161E00E94C0030FE010E021E050
:1001A000A22EB12C8A8160E00E94C00360E0C501EC
:1001B000002E02C0880F991F0A94E2F7AA2797FD24
:1001C000A095BA2F8C219D21AE21BF210097A105BA
:1001D000B10509F061E088810E94C0038A8161E075
:1001E0000E94C003015010408FEF0F3F1807D1F657
:1001F0008A8160E00E94C0038A8161E00E94C0039E
:100200008C8160E00E94C003DF91CF911F910F911C
:10021000FF90EF90DF90CF90BF90AF900895CF9375
:10022000DF93EC010E943B032F81388549855A8575
:10023000621B730B840B950B653671058105910567
:1002400018F423E030E01DC0FE01E75BFF4F808122
:10025000918101969183808305978CF011821082A1
:10026000FE01E95BFF4F808191810196918380833C
:100270000A972CF01182108220E030E002C022E0C8
:1002800030E0C901DF91CF9108950F931F93CF9371
:10029000DF93EC01C95BDF4F09911991A881B98106
:1002A000C954D040D096F801EE0FFF1FE00FF11FA8
:1002B000EE0FFF1F3B96EC0FFD1F40E050E060E0AB
:1002C00070E020E030E0440F551F661F771F8081EB
:1002D000992787FD9095A817B90724F44F5F5F4FC2
:1002E0006F4F7F4F2F5F3F4F31962630310559F7C3
:1002F0003AE0440F551F661F771F3A95D1F781E00A
:1003000090E0A0E0B0E004C0880F991FAA1FBB1FB7
:100310000A95D2F780959095A095B0959370A070AE
:10032000B070482B592B6A2B7B2BCE010E94BC004E
:100330000E943B036F83788789879A8783E090E0E8
:10034000DF91CF911F910F9108950F931F938C010F
:10035000095B1F4FF801119211928F0111821082D7
:10036000095410400E943B03F8016783708781871E
:10037000928782E090E01F910F910895CF93DF93D1
:10038000EC018E81823059F0833069F0813019F0B0
:1003900020E030E00CC0CE010E94A50107C0CE01D4
:1003A0000E94450103C0CE010E940F019C018E8175
:1003B000992787FD90952817390709F02E83DF913B
:1003C000CF9108950F931F938C01862FF8016083BE
:1003D0007183538342833583248361E00E94A003A9
:1003E000F801828161E00E94A003F801848161E04C
:1003F0000E94A0031F910F91089584E191E067E0AE
:1004000070E048E050E026E030E00E94E20108950C
:100410008F929F92AF92BF92CF92DF92EF92FF9214
:100420000F931F93DF93CF93CDB7DEB7EC970FB643
:10043000F894DEBF0FBECDBF84E191E00E94BE0103
:10044000CC24DD245E010894A11CB11C40E3842E61
:1004500039E3932E48C0C216D30614F0908201C02F
:1004600080823196019686309105A9F74A5F5F4FE9
:100470002F5F3F4F2A30310521F0FA0180E090E0F4
:10048000EACF0E942D037B018C010FC084E191E033
:10049000B5010E94950084E191E00E94BE0184E1D3
:1004A00091E00E948D008823B1F30E942D036E1904
:1004B0007F09800B910B683C71058105910530F334
:1004C0000894C11CD11C8AE0C816D10461F429E04B
:1004D000C22ED12C5E010894A11CB11C90E3892E80
:1004E00089E3982E41C0A50120E030E0C6CFC216B6
:1004F000D30614F0908201C0808231960196863036
:100500009105A9F74A5F5F4F2F5F3F4F2A303105B2
:1005100021F0FA0180E090E0EACF0E942D037B01F8
:100520008C010FC084E191E0B5010E94950084E147
:1005300091E00E94BE0184E191E00E948D00882339
:10054000B1F30E942D036E197F09800B910B683C5B
:1005500071058105910530F30894C108D1088FEF2A
:10056000C8168FEFD80621F0A50120E030E0D1CFEA
:10057000EC960FB6F894DEBF0FBECDBFCF91DF91E2
:100580001F910F91FF90EF90DF90CF90BF90AF90B1
:100590009F908F9008950F931F930CEE11E0C80168
:1005A00040E855E260E070E00E944A04C80160E063
:1005B00071E00E94E6051F910F9108950E94660365
:1005C0000E94CB020E940802FDCF1F920F920FB62D
:1005D0000F9211242F933F938F939F93AF93BF93C9
:1005E0008091630190916401A0916501B0916601D1
:1005F000309167010196A11DB11D232F2D5F2D376D
:1006000020F02D570196A11DB11D20936701809305
:10061000630190936401A0936501B093660180919A
:100620005F0190916001A0916101B091620101961A
:10063000A11DB11D80935F0190936001A0936101A2
:10064000B0936201BF91AF919F918F913F912F9194
:100650000F900FBE0F901F9018958FB7F8942091B0
:1006600063013091640140916501509166018FBF33
:10067000B901CA0108956FB7F89486B590E0A0E07B
:10068000B0E0A89B08C00097A105B10521F480E067
:1006900091E0A0E0B0E020915F01309160014091D5
:1006A0006101509162016FBF542F432F322F2227D7
:1006B000280F391F4A1F5B1F82E0220F331F441F80
:1006C000551F8A95D1F7B901CA010895789484B568
:1006D000826084BD84B5816084BD85B5826085BD3E
:1006E00085B5816085BDEEE6F0E080818160808324
:1006F000E1E8F0E080818260808380818160808396
:10070000E0E8F0E0808181608083E1EBF0E08081CF
:1007100084608083E0EBF0E0808181608083EAE7A1
:10072000F0E080818460808380818260808380812A
:10073000816080838081806880831092C1000895E9
:10074000282F30E0C90186569F4FFC0194912A570B
:100750003F4FF9018491882391F0E82FF0E0EE0FEC
:10076000FF1FE859FF4FA591B491662329F48C919E
:10077000909589238C9308958C91892B8C9308955F
:10078000482F50E0CA0182559F4FFC012491CA01B5
:1007900086569F4FFC0194914A575F4FFA0134915E
:1007A0003323D1F1222331F1233021F480918000D1
:1007B0008F7705C0243031F4809180008F7D809345
:1007C000800018C0213019F484B58F7704C022301E
:1007D00021F484B58F7D84BD0DC0263021F4809135
:1007E000B0008F7705C0273029F48091B0008F7D4D
:1007F0008093B000E32FF0E0EE0FFF1FEE58FF4FA5
:10080000A591B491662329F48C91909589238C93BA
:1008100008958C91892B8C9308951F920F920FB697
:100820000F9211242F933F934F935F936F937F9376
:100830008F939F93AF93BF93EF93FF934091C60025
:10084000E091E801F091E901CF01019660E870E0E4
:100850000E9410069C018091EA019091EB012817FB
:10086000390739F0E859FE4F40833093E90120936E
:10087000E801FF91EF91BF91AF919F918F917F918F
:100880006F915F914F913F912F910F900FBE0F90FD
:100890001F9018955F926F927F928F929F92AF9266
:1008A000BF92CF92DF92EF92FF920F931F93CF935D
:1008B000DF93EC013A014B01413482E458078FE0A9
:1008C000680780E078070CF07FC060E874E88EE18C
:1008D00090E0A40193010E94450621503040404021
:1008E0005040CA01B90122E030E040E050E00E94EF
:1008F000450659016A01A60195012095309540955C
:10090000509594E0220F331F441F551F9A95D1F73D
:1009100060E074E284EF90E00E944506CA01B901EC
:100920002FEF30E040E050E00E94F105A401930178
:100930000E944506C90181509F4F181619061CF4E4
:10094000522E5A9403C055245394521A60E079E011
:100950008DE390E0A40193010E94450621503040B0
:1009600040405040CA01B90122E030E040E050E090
:100970000E944506209530954095509583E0220FC2
:10098000331F441F551F8A95D1F760E074E284EF4E
:1009900090E00E944506CA01B9012FEF30E040E027
:1009A00050E00E94F105A40193010E944506C9018F
:1009B00081509F4F181619061CF4822F815002C0D7
:1009C00081E0821B851500F5E885F98581E090E0DE
:1009D0000A8802C0880F991F0A94E2F7808360E0BA
:1009E00079E08DE390E0A40193010E944506215037
:1009F000304040405040CA01B90122E030E040E0C0
:100A000050E00E94450604C0E885F98510829501F2
:100A1000EC81FD813083EE81FF812083EA85FB85B7
:100A2000208141E050E0CA010E8402C0880F991F66
:100A30000A94E2F7282B2083EA85FB852081CA01EE
:100A40000F8402C0880F991F0A94E2F7282B208395
:100A5000EA85FB858081088802C0440F551F0A94EF
:100A6000E2F7842B8083DF91CF911F910F91FF904C
:100A7000EF90DF90CF90BF90AF909F908F907F903E
:100A80006F905F900895FC01A085B18521898C91BC
:100A900090E0022E02C0959587950A94E2F780FFB8
:100AA000F6CF0484F585E02D608308958DE091E014
:100AB0009093ED018093EC0188E691E09093EF0133
:100AC0008093EE0185EC90E09093F1018093F0012A
:100AD00084EC90E09093F3018093F20180EC90E03D
:100AE0009093F5018093F40181EC90E09093F701ED
:100AF0008093F60186EC90E09093F9018093F801E1
:100B000084E08093FA0183E08093FB0187E0809387
:100B1000FC0185E08093FD0181E08093FE01089552
:100B20000F931F93CF93DF938C01EB0109C02196A4
:100B3000D801ED91FC910190F081E02DC80109955B
:100B400068816623A1F7DF91CF911F910F910895DE
:100B5000EF92FF920F931F93CF93DF938C017B0152
:100B6000EA010CC0D7016D917D01D801ED91FC9196
:100B70000190F081E02DC80109952197209791F708
:100B8000DF91CF911F910F91FF90EF900895DC01BD
:100B9000ED91FC910280F381E02D099508950F936A
:100BA0001F938C01DC01ED91FC910190F081E02D0F
:100BB0006DE00995D801ED91FC910190F081E02D57
:100BC000C8016AE009951F910F9108950F931F9333
:100BD0008C010E94C705C8010E94CF051F910F918B
:100BE0000895629FD001739FF001829FE00DF11D77
:100BF000649FE00DF11D929FF00D839FF00D749F97
:100C0000F00D659FF00D9927729FB00DE11DF91F42
:100C1000639FB00DE11DF91FBD01CF01112408959F
:100C200097FB092E07260AD077FD04D049D006D0BD
:100C300000201AF4709561957F4F0895F6F790950E
:100C400081959F4F0895A1E21A2EAA1BBB1BFD019F
:100C50000DC0AA1FBB1FEE1FFF1FA217B307E4079B
:100C6000F50720F0A21BB30BE40BF50B661F771FF3
:100C7000881F991F1A9469F76095709580959095D3
:100C80009B01AC01BD01CF01089597FB092E0526FC
:100C90000ED057FD04D0D7DF0AD0001C38F4509591
:100CA0004095309521953F4F4F4F5F4F0895F6F790
:100CB00090958095709561957F4F8F4F9F4F0895C8
:100CC000AA1BBB1B51E107C0AA1FBB1FA617B70772
:100CD00010F0A61BB70B881F991F5A95A9F780958E
:100CE0009095BC01CD010895EE0FFF1F0590F49182
:080CF000E02D0994F894FFCFF8
:100CF8005374617274696E670000000000430590C8
:040D080005A8050035
:00000001FF
