:100000000C9462000C948A000C948A000C948A0070
:100010000C948A000C948A000C948A000C948A0038
:100020000C948A000C948A000C948A000C948A0028
:100030000C948A000C948A000C948A000C948A0018
:100040000C94C6020C948A000C9418040C948A0038
:100050000C948A000C948A000C948A000C948A00F8
:100060000C948A000C948A000000000024002700F1
:100070002A0000000000250028002B0000000000DE
:1000800023002600290004040404040404040202DA
:100090000202020203030303030301020408102007
:1000A0004080010204081020010204081020000012
:1000B0000007000201000003040600000000000029
:1000C0000000610511241FBECFEFD8E0DEBFCDBF19
:1000D00012E0A0E0B1E0ECEEFEE002C005900D926F
:1000E000A633B107D9F713E0A6E3B2E001C01D9231
:1000F000A032B107E1F710E0C4ECD0E004C02297D1
:10010000FE010E947007C23CD107C9F70E94BF02DE
:100110000C9474070C9400000E941C032091380278
:100120003091390240913A0250913B02621B730BAD
:10013000840B950B655F71408040904018F423E07C
:1001400030E014C0809178029091790201969093EA
:100150007902809378020A971CF422E030E006C00E
:10016000109279021092780220E030E0C9010895DF
:1001700010927902109278020E941C036093380258
:100180007093390280933A0290933B0282E090E0B0
:100190000895CF92DF92EF92FF920F931F93CF9328
:1001A000DF93C0917802D0917902CE010196FC01D3
:1001B000EE0FFF1FE80FF91FEE0FFF1FEA5CFD4F68
:1001C00020E030E040E050E060E070E0440F551F78
:1001D000661F771F8081813324F04F5F5F4F6F4F21
:1001E0007F4F2F5F3F4F31962630310579F77A01E7
:1001F0008B014AE0EE0CFF1C001F111F4A95D1F73E
:1002000081E090E0A0E0B0E004C0880F991FAA1F31
:10021000BB1FCA95D2F780959095A095B095937025
:10022000A070B070E82AF92A0A2B1B2B8DE093E00E
:1002300060E071E00E94D2058DE093E0B801A70173
:1002400022E030E00E94E00664E670E080E090E0AA
:100250000E94470386E061E00E94CB03CFE0D0E03C
:1002600031E0C32ED12C87E060E00E94CB0360E038
:10027000C6010C2E02C0880F991F0A94E2F7AA2724
:1002800097FDA095BA2F8E219F21A023B12300971F
:10029000A105B10509F061E088E00E94CB0387E089
:1002A00061E00E94CB0321978FEFCF3FD807D9F6AB
:1002B00087E060E00E94CB0387E061E00E94CB030F
:1002C00086E060E00E94CB030E941C03609338022A
:1002D0007093390280933A0290933B0283E090E05E
:1002E000DF91CF911F910F91FF90EF90DF90CF9012
:1002F000089580913602909137028130910561F026
:10030000823091051CF4892BF9F010C082309105E0
:1003100031F0039759F406C00E94B80005C00E944E
:10032000C90002C00E948C009C0110C08DE093E0C7
:1003300063E171E00E94D20560913602709137024C
:100340008DE093E00E94BB0620E030E08091360211
:10035000909137022817390721F030933702209304
:10036000360208950E9479018091360290913702F9
:10037000892B09F0E4C08DE093E063E271E00E9414
:10038000D20540917A0250917B02662757FD609515
:10039000762F8DE093E02AE030E00E94E006809125
:1003A0007A0290917B028130910589F1823091052A
:1003B0001CF4892B49F099C08230910509F44AC098
:1003C000039709F092C068C06EE271E040E050E02F
:1003D0000FC08D9181932F5F3F4F26303105C9F7B4
:1003E0006A5F7F4F4F5F5F4F4A30510509F476C017
:1003F000CA010196FC01EE0FFF1FE80FF91FEE0F77
:10040000FF1FEA5CFD4FDB0120E030E0E2CF6BE64E
:1004100071E040E050E00FC08D9181932F5F3F4F1E
:1004200026303105C9F76A5F7F4F4F5F5F4F4A3013
:10043000510509F453C0CA010196FC01EE0FFF1FDC
:10044000E80FF91FEE0FFF1FEA5CFD4FDB0120E014
:1004500030E0E2CF68EA71E040E050E00EC08D91FC
:1004600081932F5F3F4F26303105C9F76A5F7F4F79
:100470004F5F5F4F4A30510589F1CA010196FC0177
:10048000EE0FFF1FE80FF91FEE0FFF1FEA5CFD4F95
:10049000DB0120E030E0E3CF65EE71E040E050E0CA
:1004A0000EC08D9181932F5F3F4F26303105C9F7E4
:1004B0006A5F7F4F4F5F5F4F4A30510579F0CA0145
:1004C0000196FC01EE0FFF1FE80FF91FEE0FFF1F53
:1004D000EA5CFD4FDB0120E030E0E3CF81E090E01B
:1004E000909337028093360204C010927B021092E0
:1004F0007A020E940E0320917C0230917D0240918D
:100500007E0250917F02621B730B840B950B69581E
:1005100073418040904098F080917A0290917B02E4
:10052000019690937B0280937A020E940E0360935F
:100530007C0270937D0280937E0290937F020895E7
:100540000F931F9388E061E00E94AB0387E061E0B6
:100550000E94AB0386E061E00E94AB030DE013E074
:10056000C80140E855E260E070E00E945504C8010F
:1005700062E272E00E94F1051F910F9108950E94BE
:1005800071030E94A0020E94B201FDCF1F920F9240
:100590000FB60F9211242F933F938F939F93AF9396
:1005A000BF938091840290918502A0918602B091C0
:1005B0008702309188020196A11DB11D232F2D5F66
:1005C0002D3720F02D570196A11DB11D20938802D3
:1005D0008093840290938502A0938602B093870251
:1005E0008091800290918102A0918202B091830259
:1005F0000196A11DB11D8093800290938102A0936A
:100600008202B0938302BF91AF919F918F913F91EE
:100610002F910F900FBE0F901F9018958FB7F894E1
:100620002091840230918502409186025091870288
:100630008FBFB901CA0108956FB7F89486B590E0ED
:10064000A0E0B0E0A89B08C00097A105B10521F487
:1006500080E091E0A0E0B0E0209180023091810242
:1006600040918202509183026FBF542F432F322F4B
:100670002227280F391F4A1F5B1F82E0220F331FDA
:10068000441F551F8A95D1F7B901CA010895EF9209
:10069000FF920F931F937B018C018FB7F8944091C9
:1006A00084025091850260918602709187028FBF0B
:1006B0002FB7F8948091840290918502A0918602D0
:1006C000B09187022FBF841B950BA60BB70BE816C2
:1006D000F9060A071B0760F71F910F91FF90EF9033
:1006E0000895789484B5826084BD84B5816084BDAA
:1006F00085B5826085BD85B5816085BDEEE6F0E09B
:10070000808181608083E1E8F0E080818260808385
:10071000808181608083E0E8F0E080818160808377
:10072000E1EBF0E0808184608083E0EBF0E08081A9
:1007300081608083EAE7F0E080818460808380814B
:1007400082608083808181608083808180688083F3
:100750001092C1000895282F30E0C90186569F4F9E
:10076000FC0194912A573F4FF9018491882391F01D
:10077000E82FF0E0EE0FFF1FE859FF4FA591B4916D
:10078000662329F48C91909589238C9308958C91FC
:10079000892B8C930895482F50E0CA0182559F4FB2
:1007A000FC012491CA0186569F4FFC0194914A573F
:1007B0005F4FFA0134913323D1F1222331F12330F9
:1007C00021F4809180008F7705C0243031F480912E
:1007D00080008F7D8093800018C0213019F484B58B
:1007E0008F7704C0223021F484B58F7D84BD0DC085
:1007F000263021F48091B0008F7705C0273029F48E
:100800008091B0008F7D8093B000E32FF0E0EE0F79
:10081000FF1FEE58FF4FA591B491662329F48C91E8
:10082000909589238C9308958C91892B8C930895AE
:100830001F920F920FB60F9211242F933F934F9355
:100840005F936F937F938F939F93AF93BF93EF9338
:10085000FF934091C600E0910903F0910A03CF0194
:10086000019660E870E00E940A079C0180910B03EA
:1008700090910C032817390739F0E757FD4F408353
:1008800030930A0320930903FF91EF91BF91AF9139
:100890009F918F917F916F915F914F913F912F9198
:1008A0000F900FBE0F901F9018955F926F927F92DE
:1008B0008F929F92AF92BF92CF92DF92EF92FF9270
:1008C0000F931F93CF93DF93EC013A014B01413417
:1008D00082E458078FE0680780E078070CF07FC05B
:1008E00060E874E88EE190E0A40193010E943F0764
:1008F0002150304040405040CA01B90122E030E070
:1009000040E050E00E943F0759016A01A6019501AD
:10091000209530954095509594E0220F331F441F49
:10092000551F9A95D1F760E074E284EF90E00E9441
:100930003F07CA01B9012FEF30E040E050E00E94CC
:10094000EB06A40193010E943F07C90181509F4F0C
:10095000181619061CF4522E5A9403C055245394A9
:10096000521A60E079E08DE390E0A40193010E94C7
:100970003F072150304040405040CA01B90122E0B9
:1009800030E040E050E00E943F07209530954095D0
:10099000509583E0220F331F441F551F8A95D1F7CE
:1009A00060E074E284EF90E00E943F07CA01B90161
:1009B0002FEF30E040E050E00E94EB06A4019301ED
:1009C0000E943F07C90181509F4F181619061CF459
:1009D000822F815002C081E0821B851500F5E885D9
:1009E000F98581E090E00A8802C0880F991F0A9477
:1009F000E2F7808360E079E08DE390E0A401930169
:100A00000E943F072150304040405040CA01B90188
:100A100022E030E040E050E00E943F0704C0E8855B
:100A2000F98510829501EC81FD813083EE81FF8193
:100A30002083EA85FB85208141E050E0CA010E84D5
:100A400002C0880F991F0A94E2F7282B2083EA85B9
:100A5000FB852081CA010F8402C0880F991F0A9468
:100A6000E2F7282B2083EA85FB858081088802C075
:100A7000440F551F0A94E2F7842B8083DF91CF91B6
:100A80001F910F91FF90EF90DF90CF90BF90AF90AC
:100A90009F908F907F906F905F900895FC01A0854C
:100AA000B18521898C9190E0022E02C095958795A1
:100AB0000A94E2F780FFF6CF0484F585E02D608389
:100AC00008958FE292E090930E0380930D0389E8DE
:100AD00092E09093100380930F0385EC90E0909345
:100AE00012038093110384EC90E09093140380939D
:100AF000130380EC90E0909316038093150381EC30
:100B000090E0909318038093170386EC90E0909305
:100B10001A038093190384E080931B0383E080937E
:100B20001C0387E080931D0385E080931E0381E012
:100B300080931F0308950F931F93CF93DF938C012E
:100B4000EB0109C02196D801ED91FC910190F08153
:100B5000E02DC801099568816623A1F7DF91CF9147
:100B60001F910F910895EF92FF920F931F93CF93D0
:100B7000DF938C017B01EA010CC0D7016D917D01EF
:100B8000D801ED91FC910190F081E02DC80109950B
:100B90002197209791F7DF91CF911F910F91FF90AF
:100BA000EF900895DC01ED91FC910280F381E02D3E
:100BB000099508950F931F938C01DC01ED91FC9131
:100BC0000190F081E02D6DE00995D801ED91FC9147
:100BD0000190F081E02DC8016AE009951F910F9105
:100BE00008950F931F938C010E94D205C8010E94A3
:100BF000DA051F910F9108952F923F924F925F92C5
:100C00006F927F928F929F92AF92BF92CF92DF921C
:100C1000EF92FF920F931F93DF93CF93CDB7DEB781
:100C2000A0970FB6F894DEBF0FBECDBF1C016A01BE
:100C30007B01411551056105710549F4DC01ED9118
:100C4000FC910190F081E02D60E3099554C0882467
:100C500099245401422E55246624772401E010E0A3
:100C60000C0F1D1F080D191DC701B601A30192012C
:100C70000E941D07F80160830894811C911CA11C2F
:100C8000B11CC701B601A30192010E941D07C90151
:100C9000DA016C017D01C114D104E104F104F1F623
:100CA00081E0E82EF12CEC0EFD1EE80CF91C3E0153
:100CB0000894611C711CD501C4010197A109B109F7
:100CC0006C01C818D90814C0F601EE0DFF1D608133
:100CD0006A3010F4605D01C0695CD101ED91FC9156
:100CE0000190F081E02DC10109950894E108F10817
:100CF0006E147F0449F7A0960FB6F894DEBF0FBEBE
:100D0000CDBFCF91DF911F910F91FF90EF90DF90BA
:100D1000CF90BF90AF909F908F907F906F905F909B
:100D20004F903F902F900895EF92FF920F931F9353
:100D3000CF93DF93EC017A018B0177FF0FC0E8813D
:100D4000F9810190F081E02D6DE2099510950095F3
:100D5000F094E094E11CF11C011D111DCE01B801BD
:100D6000A7012AE00E94FC05DF91CF911F910F910E
:100D7000FF90EF9008950F931F938C01AB016627AE
:100D800057FD6095762F0E949406C8010E94DA05EF
:100D90001F910F910895DC012115310541F4ED916A
:100DA000FC910190F081E02D642F099508952A307F
:100DB000310519F40E94940608950E94FC050895D7
:100DC0000F931F938C010E94CB06C8010E94DA0585
:100DD0001F910F910895629FD001739FF001829F30
:100DE000E00DF11D649FE00DF11D929FF00D839FBA
:100DF000F00D749FF00D659FF00D9927729FB00D57
:100E0000E11DF91F639FB00DE11DF91FBD01CF0169
:100E10001124089597FB092E07260AD077FD04D0E8
:100E200049D006D000201AF4709561957F4F08953F
:100E3000F6F7909581959F4F0895A1E21A2EAA1B6F
:100E4000BB1BFD010DC0AA1FBB1FEE1FFF1FA2177A
:100E5000B307E407F50720F0A21BB30BE40BF50B77
:100E6000661F771F881F991F1A9469F76095709500
:100E7000809590959B01AC01BD01CF01089597FB32
:100E8000092E05260ED057FD04D0D7DF0AD0001C4E
:100E900038F450954095309521953F4F4F4F5F4F17
:100EA0000895F6F790958095709561957F4F8F4FD7
:100EB0009F4F0895AA1BBB1B51E107C0AA1FBB1F70
:100EC000A617B70710F0A61BB70B881F991F5A95D6
:100ED000A9F780959095BC01CD010895EE0FFF1FF5
:0C0EE0000590F491E02D0994F894FFCFE8
:100EEC002043616C63756C6174656420646174612A
:100EFC003A2000556E6B6E6F776E2073746174655B
:100F0C003A2000496E2053746174653A20003131E7
:100F1C0031313131303030303030303030303030C1
:100F2C0030303030303030303030303030303030B5
:100F3C0030303030303030303030303030303030A5
:100F4C0030303030303030303030003130303030C4
:100F5C003031303030303030313030303030313082
:100F6C003030303030313030303030313030303073
:100F7C003030313030303030313030303030303162
:100F8C003030303030313000303031303030303083
:100F9C003031303030303031303030303030313042
:100FAC003030303031303130303030303130303032
:100FBC003030303130303030303130303030303023
:100FCC003130303000313131313131313131313139
:100FDC0031313131313131313131313131313131F5
:100FEC0031313131313131313131313131313131E5
:100FFC0031313131313131313131313131313131D5
:10100C0031005374617274696E6700000000004E09
:06101C00059B05B3050071
:00000001FF
