:100000000C94FE000C9426010C9426010C942601FD
:100010000C9426010C9426010C9426010C942601C4
:100020000C9426010C9426010C9426010C947D0757
:100030000C9469090C9426010C9426010C94260159
:100040000C94A00C0C9426010C94B90D0C94260170
:100050000C9426010C9426010C9426010C94260184
:100060000C9426010C94260153616D706C6520720E
:1000700061746520746F6F206869676821004D6F37
:100080007265207468616E20313620626974732055
:100090007065722073616D706C6521004E6F742005
:1000A0006D6F6E6F2F73746572656F2100436F6D96
:1000B0007072657373696F6E206E6F7420737570E4
:1000C000706F7274656400436F6D707265737369ED
:1000D0006F6E206E6F7420737570706F72746564CC
:1000E0000046696C657320666F756E643A00436103
:1000F0006E2774206F70656E20726F6F7420646954
:100100007221002C20747970652069732046415457
:10011000005573696E6720706172746974696F6EDF
:1001200020004E6F2076616C696420464154207037
:100130006172746974696F6E210043617264206931
:100140006E69742E206661696C6564210046726573
:10015000652052414D3A20000A576176652074654A
:10016000737421002E00204E6F7420612076616C24
:1001700069642057415600506C6179696E672000B0
:100180005375626469723A20002C20000A0D5344B2
:1001900020492F4F206572726F723A2000000000D4
:1001A00000240027002A0000000000250028002B62
:1001B00000000000002300260029000404040404B9
:1001C0000404040202020202020303030303030104
:1001D00002040810204080010204081020010204DB
:1001E00008102000000007000201000003040600C0
:1001F0000000000000000000960A020F11241FBE3C
:10020000CFEFD8E0DEBFCDBF11E0A0E0B1E0EEE47B
:10021000F2E202C005900D92A033B107D9F714E0C5
:10022000A0E3B1E001C01D92A035B107E1F711E0F4
:10023000CCEFD1E004C02297FE010E942111C83FFB
:10024000D107C9F70E94990C0C9425110C94000059
:10025000FB01DC014150504030F08D91019080193C
:1002600019F40020B9F7881B990B0895FC018585C6
:100270009685A785B08985839683A783B0871186E5
:1002800012861386148608952F923F924F925F92A2
:100290006F927F928F929F92AF92BF92CF92DF9296
:1002A000EF92FF920F931F93DF93CF93CDB7DEB7FB
:1002B000A5970FB6F894DEBF0FBECDBF2C01FC0191
:1002C000748B638B442321F46624772443013AC062
:1002D000453008F007C1242F30E0A4E0220F331F7F
:1002E000AA95E1F722553E4FCB0140E050E060E097
:1002F00070E04E010894811C911C8401F0E1EF2E06
:10030000F12C0E94EA05882309F4ECC0898190E071
:100310008F779070892B09F0E5C0F401848595856D
:10032000A685B78584369105A105B10508F4DAC024
:1003300060847184828493846114710481049104C3
:1003400009F4D0C0F20183899489B401A3012BE0A0
:1003500030E01E010894211C311C8101E5E2EE2EE3
:10036000F12C0E94EA05882309F4BCC089819A8196
:100370008050924009F0B6C0F1015581552309F42F
:10038000B1C083819481892B09F4ACC0428144239C
:1003900009F4A8C0242F30E0C901019782239323D8
:1003A000892B09F09FC0F20155874083F101238515
:1003B00034852115310519F040E050E005C0F10108
:1003C000218D328D438D548DF201218332834383FD
:1003D0005483F101E680F780F201F68AE58AF101A3
:1003E000A380B480CC24DD24A60CB71CC81CD91C67
:1003F000F201A686B786C08AD18AF101658170E0D4
:1004000080E090E00E949C106A0D7B1D8C1D9D1D5C
:10041000F201678B708F818F928F35E0EE0CFF1C9D
:100420003A95E1F72FEF31E0E20EF31EEF2CFF24B7
:10043000E69400E010E06E0D7F1D801F911F618724
:10044000728783879487F10180859185009721F0D9
:100450009C0140E050E005C0F101258936894789BB
:10046000508DF201238F348F458F568F8185928571
:10047000A385B485681A790A8A0A9B0A620E731EDC
:10048000841E951EF101228130E040E050E0C4015D
:10049000B3010E94CE10C901DA01F201858396836F
:1004A000A783B087853FFFE09F07F0E0AF07F0E04C
:1004B000BF0710F48CE006C0855F9F4FA040B0409E
:1004C00028F480E1F201828B81E00DC0F10181A16D
:1004D00092A1A3A1B4A1F201878B908FA18FB28FBB
:1004E00080E2F1CF80E0A5960FB6F894DEBF0FBE94
:1004F000CDBFCF91DF911F910F91FF90EF90DF90D3
:10050000CF90BF90AF909F908F907F906F905F90B3
:100510004F903F902F9008952F923F924F925F926D
:100520006F927F928F929F92AF92BF92CF92DF9203
:10053000EF92FF920F931F93CF93DF933C011B0128
:10054000DC011996AD90BD90CD90DC901C97F50123
:100550001FEF412E11E0512E4A205B2060E072E037
:10056000641975094A016417750708F44B01D30132
:100570001196ED90FD900D911C911497940140E01F
:1005800050E0D801C7018A199B09AC09BD0982173F
:100590009307A407B50718F447018E1A9F0AF301C1
:1005A0008081B9E0D694C794B794A794BA95D1F74F
:1005B000C189D289823049F44F89588D698D7A8DED
:1005C0004A0D5B1D6C1D7D1D2CC0E8806E2D70E0FA
:1005D00080E090E0D30115962D913D914D915C9175
:1005E000189722503040404050400E949C10AB0170
:1005F000BC0189859A85AB85BC85480F591F6A1F48
:100600007B1FFF240894E108F1080027F7FC009500
:10061000102FEA20FB200C211D214E0D5F1D601FB5
:10062000711FD3015196ED91FC9152978389948962
:100630009201810174010E94EA05882319F42FEFC9
:100640003FEF01C09401C901DF91CF911F910F913C
:10065000FF90EF90DF90CF90BF90AF909F908F90E2
:100660007F906F905F904F903F902F900895EF9202
:10067000FF920F931F93DF93CF9300D000D000D051
:10068000CDB7DEB7FC018A019B01423051056105FF
:10069000710508F45AC085819681A781B0850296BC
:1006A000A11DB11D481759076A077B0708F04DC007
:1006B0008289803231F5B7E07695679557954795F1
:1006C000BA95D1F786859785A089B189480F591FBA
:1006D0006A1F7B1F9801220F331F220F331F3170B7
:1006E000838994898E010D5F1F4FE4E0EE2EF12C7B
:1006F0000E94EA05882349F12B813C814D815E816E
:1007000028C0803111F5452F562F672F7727868512
:100710009785A089B189480F591F6A1F7B1F9801CF
:10072000220F331F3170838994898E010F5F1F4F11
:10073000E2E0EE2EF12C0E94EA05882331F0898157
:100740009A819C0140E050E004C020E030E040E0AD
:1007500050E0B901CA0126960FB6F894DEBF0FBE6D
:10076000CDBFCF91DF911F910F91FF90EF90089532
:10077000AF92BF92CF92DF92EF92FF920F931F93AF
:10078000CF93DF936C01EE24FF24870110C0F601A4
:1007900080815E01880FB82EE501C0E0CE01AA2756
:1007A00097FDA095BA2FE80EF91E0A1F1B1FC60160
:1007B0000E943703AB01BC0141155105610571056C
:1007C00031F7B701C801DF91CF911F910F91FF90D1
:1007D000EF90DF90CF90BF90AF9008950F931F934D
:1007E000CF93DF93EC018B01FB0182898031B1F45F
:1007F00082E088831D861E861F86188A85899689D1
:10080000A0E0B0E025E0880F991FAA1FBB1F2A9522
:10081000D1F789839A83AB83BC8316C0803211F0F1
:1008200080E021C083E08883FB014789508D618D82
:10083000728D4D875E876F87788BC8010E94B803E1
:1008400069837A838B839C831A8B098B8D859E8524
:10085000AF85B8898D839E83AF83B88719861A8642
:100860001B861C8681E0DF91CF911F910F91089527
:100870000F931F93CF93DF93EC018B01FA01DB0100
:1008800052968C91803108F446C08081882309F407
:1008900042C0853E09F43FC084899589A0E0B0E05C
:1008A000BC0155274427828D938DA0E0B0E0480F0E
:1008B000591F6A1F7B1F4D875E876F87788B8385E3
:1008C00090E088719070009759F481E08883848D5E
:1008D000958DA68DB78D89839A83AB83BC830BC01E
:1008E0004097C9F484E08883C8010E94B8036983F3
:1008F0007A838B839C831A8B098B8D859E85AF852C
:10090000B8898D839E83AF83B88719861A861B8624
:100910001C8681E001C080E0DF91CF911F910F9193
:1009200008956F927F928F929F92AF92BF92CF92D3
:10093000DF92EF92FF920F931F93CF93DF93EC011F
:1009400069847A848B849C84460D571D681D791DAB
:1009500089819A81AB81BC8184179507A607B70767
:1009600008F44BC0E989FA89E08049875A876B8788
:100970007C878881823009F442C0FF2400E010E0C7
:10098000E9E07695679557954795EA95D1F7CB01BC
:10099000BA01A80197010E94CE1059016A0149E0ED
:1009A00096948794779467944A95D1F7C401B301DC
:1009B000A80197010E94CE10A21AB30AC40AD50A50
:1009C00016C04D815E816F81788589899A890E94E0
:1009D00037036D837E838F8398870894A108B108BD
:1009E000C108D108611571058105910531F0A11487
:1009F000B104C104D10429F702C080E001C081E044
:100A0000DF91CF911F910F91FF90EF90DF90CF90EA
:100A1000BF90AF909F908F907F906F900895AF920E
:100A2000BF92CF92DF92EF92FF920F931F93CF93DB
:100A3000DF935C017B016A0100E010E004C0EC0E72
:100A4000FD1E0C0F1D1F0C151D05D8F4A601401B23
:100A5000510BC501B7010E948C02EC011816190652
:100A60001CF097FF0EC00AC0AC01662757FD6095C9
:100A7000762FC5010E949104882309F72FEF3FEFDD
:100A800001C09801C901DF91CF911F910F91FF9093
:100A9000EF90DF90CF90BF90AF900895EF92FF92CC
:100AA0000F931F93CF93DF938C01EB01FC018081A7
:100AB000823010F42FEF1CC07B0108C08B8590E0C2
:100AC000887190700097A1F0409791F0C801B7012C
:100AD00040E250E00E940F05282F803231F48881D7
:100AE000882329F0853E91F3E9CF18160CF420E015
:100AF000822FDF91CF911F910F91FF90EF9008957A
:100B0000CF93DF93EC018E818823D9F08FEF8EBDD8
:100B10002F8138854FEF04C00DB407FEFDCF4EBDC9
:100B20002F5F3F4FC901019781509240A8F338874A
:100B30002F830DB407FEFDCF8AE061E00E946C0DAB
:100B40001E82DF91CF910895CF92DF92EF92FF92B4
:100B50000F931F93162F69017A010E9480058AE086
:100B600060E00E946C0D8FEF8EBD0DB407FEFDCFCF
:100B70008EB510641EBD0DB407FEFDCF28E130E038
:100B8000D701C601022E04C0B695A7959795879503
:100B90000A94D2F78EBD0DB407FEFDCF2850304029
:100BA0008FEF283F380761F70EBD0DB407FEFDCF6C
:100BB00090E02FEF2EBD0DB407FEFDCF8EB58F3F19
:100BC00011F49150B9F71F910F91FF90EF90DF90C2
:100BD000CF9008956F927F928F929F92AF92BF9223
:100BE000CF92DF92EF92FF920F931F93CF93DF93F9
:100BF000EC015A016B0149013801E114F10409F4D7
:100C000087C0C701820F931F8150924008F040C0F7
:100C10008E81882371F088819981AA81BB814817D0
:100C200059076A077B0729F48F81988588169906EA
:100C3000A8F5A882B982CA82DB828B85833039F01D
:100C400089E0AA0CBB1CCC1CDD1C8A95D1F7CE0117
:100C500061E1A60195010FEF0E94A405882319F018
:100C600083E08C8315C080E090E03FEF3EBD0DB483
:100C700007FEFDCF2EB52F3F31F447E280319407B8
:100C800021F00196F3CF2E3F29F080E18C832D8354
:100C900080E03FC018861F8281E08E838FEF8EBD7B
:100CA0008F8198852FEF05C00DB407FEFDCF2EBDB7
:100CB000019688159905C0F398878F83D7011197FE
:100CC00020E030E09FEF0BC00DB407FEFDCF8EB5E6
:100CD000F301E20FF31F80839EBD2F5F3F4F2A1762
:100CE0003B0790F30DB407FEFDCF8EB5A60DB71DE3
:100CF0008C932F8138852E0D3F1D38872F83898552
:100D0000882319F02050324018F0CE010E9480054F
:100D100081E0DF91CF911F910F91FF90EF90DF90D5
:100D2000CF90BF90AF909F908F907F906F900895DD
:100D3000BF92CF92DF92EF92FF920F931F93DF93B8
:100D4000CF9300D000D0CDB7DEB77C01B62E8AE0BD
:100D500061E00E944C0D8AE061E00E946C0D8BE026
:100D600061E00E944C0D8DE061E00E944C0D83E536
:100D70008CBD80E09FEF9EBD0DB407FEFDCF8F5F61
:100D80008A30C9F760E00E946C0D80E090E02FEFA0
:100D90002EBD0DB407FEFDCF3EB5019632E0813089
:100DA0009307B1F7C70160E020E030E040E050E099
:100DB00005E90E94A405182F80E090E02FEF09C0FC
:100DC000019711F481E062C02EBD0DB407FEFDCF86
:100DD0001EB51130A9F7C70168E02AEA31E040E00A
:100DE00050E007E80E94A405982F813071F480E05C
:100DF0009FEF9EBD0DB407FEFDCF2EB58F5F8430F3
:100E0000C1F782E0F701838704C082FF05C0F701C4
:100E10001387CC24DD2406C082E0F7018483958308
:100E200080E05DC0C70167E320E030E040E050E0D3
:100E30000FEF0E94A405F7018385823029F020E09E
:100E400030E040E050E004C020E030E040E050E41A
:100E5000C70169E20FEF0E94A405882359F0F8EE5C
:100E6000CF16F3E0DF0611F486E010C00894C11C31
:100E7000D11CD8CFC7016AE320E030E040E050E069
:100E80000FEF0E94A405882321F085E0F7018483F9
:100E9000C7CFFE0131969FEF9E012B5F3F4F9EBD56
:100EA0000DB407FEFDCF8EB58193E217F307B9F7B6
:100EB000F7018385823031F48981807C803C11F494
:100EC00083E083878CB58C7F8CBDBB2019F48DB5F6
:100ED00081608DBD8AE061E00E946C0D81E00F9021
:100EE0000F900F900F90CF91DF911F910F91FF9076
:100EF000EF90DF90CF90BF9008951F920F920FB6A2
:100F00000F9211242F933F934F938F939F93AF93FF
:100F1000BF93EF93FF93E0913001F091310130974F
:100F200009F4A8C02091360330913703809138032B
:100F3000909139032817390709F047C080913B0386
:100F40008823B9F1809132039091330322E332E098
:100F500041E08233940749F4309333032093320302
:100F600090933503809334030AC082E391E0909319
:100F700033038093320330933503209334038091FD
:100F8000320390913303909337038093360380505C
:100F90009F4F909339038093380310923B038091C5
:100FA0003A03882391F480916F00846080936F00EE
:100FB0000CC083859485A585B6850196A11DB11DBC
:100FC00083879487A587B68755C05A985C985B9AA3
:100FD0005B985C9A5B9A5B985B9A5B985B9A5B9870
:100FE0008581803119F5E0913603F09137038181D5
:100FF000805890E087FF02C05C9A01C05C985B9AC1
:101000005B989F5F983011F0880FF4CF908180E05B
:1010100097FF02C05C9A01C05C985B9A5B988F5FF7
:10102000843011F0990FF4CF32961DC08830F9F456
:10103000E0913603F0913703908180E097FF02C082
:101040005C9A01C05C985B9A5B988F5F883011F066
:10105000990FF4CF5B9A5B985B9A5B985B9A5B986D
:101060005B9A5B983196F0933703E09336035A9A74
:101070005D985D9AFF91EF91BF91AF919F918F9194
:101080004F913F912F910F900FBE0F901F90189589
:1010900008958F929F92AF92BF92CF92DF92EF927C
:1010A000FF920F931F93DF93CF9300D000D00F9246
:1010B000CDB7DEB77C015B01942E852EFC018681C5
:1010C0009781A085B1850097A105B10599F58701A4
:1010D0000A5F1F4F6E010894C11CD11CF701878560
:1010E0009089B60144E050E00E940F05049709F092
:1010F00055C01D82F70187859089B80144E050E012
:101100000E940F05049709F049C0C60160E071E034
:1011100044E050E00E942801009761F0F701468109
:10112000578160857185878590890E949104882305
:10113000A9F634C0892D982D9C018901F2E0213057
:101140003F0710F000E012E0F7012681378140856B
:101150005185C801A0E0B0E0281739074A075B07AE
:1011600008F48901F70187859089B501A8010E94DB
:101170000F05BC018017910799F4980140E050E0F9
:10118000F70186819781A085B185821B930BA40B03
:10119000B50B86839783A087B18702C060E070E0BB
:1011A000CB010F900F900F900F900F90CF91DF9188
:1011B0001F910F91FF90EF90DF90CF90BF90AF9075
:1011C0009F908F900895BF92CF92DF92EF92FF92FF
:1011D0000F931F93CF93DF93EC01C980DA80EB80EC
:1011E000FC80B880909331018093300102E311E0DC
:1011F0001093370300933603B80142E050E00E9499
:101200004908181619060CF05AC0809136039091BF
:10121000370302969093390380933803EF85F8895A
:10122000818540E051E0481B510980913001909147
:101230003101B8016E5F7F4F0E9449089C0118166A
:101240001906ECF58091380390913903820F931FB2
:10125000909339038093380380913001909131014C
:1012600062E372E040E051E00E94490881E080932F
:101270003B038A871092800089E0809381006B2D68
:1012800070E080E090E0A70196010E949C109B0115
:10129000AC0160E074E284EF90E00E94CE103093E5
:1012A00089002093880081E090E090938B008093E8
:1012B0008A0080916F00826080936F007894DF9144
:1012C000CF911F910F91FF90EF90DF90CF90BF9043
:1012D00008951F920F920FB60F9211242F933F93F0
:1012E0004F935F936F937F938F939F93AF93BF932E
:1012F000EF93FF9380916F008B7F80936F008091BD
:101300003B03882339F581E080933A037894609118
:10131000340370913503809130019091310140E0A8
:1013200051E00E944908892B71F480916F008D7FF4
:1013300080936F00E0913001F0913101128610929C
:10134000310110923001F89410923A0381E08093B9
:101350003B037894FF91EF91BF91AF919F918F9153
:101360007F916F915F914F913F912F910F900FBEA1
:101370000F901F901895AF92BF92CF92DF92EF928D
:10138000FF920F931F93DF93CF93CDB7DEB7629792
:101390000FB6F894DEBF0FBECDBF7C015B016E01BE
:1013A0000894C11CD11CCB01B6014CE050E00E9456
:1013B0000F050C9709F06EC0C60165E071E044E0CE
:1013C00050E00E942801009709F064C0CE01099600
:1013D0006AE071E044E050E00E942801009709F0C3
:1013E00059C06AC0C6016FE071E044E050E00E945D
:1013F0002801009709F04EC068C00231110519F0AC
:1014000087EC90E045C0C501B601A8010E940F0518
:101410008017910709F03EC089819A81019739F4BC
:101420000231110539F489899A89892B19F08DEADD
:1014300090E02EC03B81F7013083333018F08CE907
:1014400090E026C08D819E81AF81B885F7018183B0
:101450009283A383B4832F852583213118F08EE7EF
:1014600090E016C08332F6E59F07F0E0AF07F0E0AA
:10147000BF0718F0293050F407C081589E43A040A0
:10148000B04050F1293040F1323030F188E690E040
:101490000E948F0A80E062960FB6F894DEBF0FBEFE
:1014A000CDBFCF91DF911F910F91FF90EF90DF9013
:1014B000CF90BF90AF900895C501B60148E050E0CD
:1014C0000E940F05089731F78DCF0D811E810031E5
:1014D000110509F092CF97CFF70116821782108677
:1014E0001186B08AA78613861486158616861286FC
:1014F00081E0D1CF1F93CF93DF93EC0110E005C0C3
:1015000089E394E00E94730F1F5FFE01E10FF11D5C
:1015100064916623A9F7DF91CF911F9108950E94EE
:101520007A0A89E394E00E948B0F08951092400399
:1015300010924203109245031092470310925A03EF
:10154000109267038BE993E00E9448080895809108
:1015500040038823F9F08CE891E00E947A0A4091D8
:10156000400350E060E070E089E394E020E130E087
:101570000E947C1089E891E00E947A0A4091410320
:1015800050E060E070E089E394E020E130E00E9408
:101590009110FFCF0895EF92FF921F93CF93DF93A7
:1015A0007C01EC0110E08881803261F0183029F470
:1015B00089E394E06EE20E947B0F89E394E0688106
:1015C0000E94730F1F5F21961B3069F7F701838517
:1015D0008871803129F489E394E06FE20E947B0FE7
:1015E000DF91CF911F91FF90EF900895CF92DF92FE
:1015F000EF92FF921F93DF93CF93CDB7DEB7639740
:101600000FB6F894DEBF0FBECDBF6C0119827E010C
:101610000894E11CF11C6BC080917B038E3209F4AD
:1016200066C089E394E00E948B0F10E006C089E356
:1016300094E060E20E947B0F1F5F80917A0318178D
:10164000B0F3C70168E473E04BE753E00E9438044D
:10165000882339F489E394E064E171E00E94A20FE9
:10166000FFCF89818230B0F080E891E00E947A0A51
:101670008BE793E00E94CB0A80917A038E5F809380
:101680007A03C7010E94F60A80917A038250809300
:101690007A032DC087E791E00E947A0A8BE793E0F6
:1016A0000E94CB0A8BE993E0B7010E94BB09882313
:1016B00029F486E691E00E947A0A19C089E394E051
:1016C0000E948B0F8BE993E00E94E3080AC084E636
:1016D00091E00E947A0A64E670E080E090E00E9467
:1016E000E80C8091A503882391F70E94A70AC60100
:1016F0006BE773E00E944E0518160CF48DCF6396CD
:101700000FB6F894DEBF0FBECDBFCF91DF911F9112
:10171000FF90EF90DF90CF9008950F931F9307E60F
:1017200013E0C8010E943601C8010E94F60A1F9109
:101730000F910895CF92DF92EF92FF921F93DF9364
:10174000CF93CDB7DEB763970FB6F894DEBF0FBE69
:10175000CDBF7C016E010894C11CD11C34C08091A6
:101760007B038E3281F110E006C089E394E060E2F1
:101770000E947B0F1F5F80917A031817B0F38BE7ED
:1017800093E00E94CB0A89E394E00E948B0F809142
:10179000860388718031B9F4198280917A038E5F53
:1017A00080937A03C60168E473E04BE753E00E943C
:1017B0003804882319F0C6010E949A0B80917A039D
:1017C000825080937A03C7016BE773E00E944E0555
:1017D00018162CF20E94A70A63960FB6F894DEBF83
:1017E0000FBECDBFCF91DF911F91FF90EF90DF90A3
:1017F000CF9008951F93DF93CF9300D0CDB7DEB77E
:1018000089E394E040E855E260E070E00E94F60D64
:1018100088E591E00E948F0A8DE491E00E947A0AA7
:1018200020914C0430914D04CE01019621153105D3
:1018300019F48055944002C0821B930B9A838983CC
:1018400069817A8189E394E00E946C1082E061E012
:101850000E944C0D83E061E00E944C0D84E061E049
:101860000E944C0D85E061E00E944C0D8CE393E0FA
:1018700060E00E949806882339F48AE391E00E9490
:101880008F0A0E94A70AFFCF8CE393E00E94800595
:1018900081E08093450310E088E493E06CE373E01B
:1018A000412F0E944401882351F41F5F1530A1F796
:1018B00082E291E00E948F0A0E94A70AFFCF81E195
:1018C00091E00E947A0A412F50E060E070E089E3E5
:1018D00094E02AE030E00E947C1083E091E00E94D6
:1018E0007A0A40915A0350E060E070E089E394E0A6
:1018F0002AE030E00E94911087E693E068E473E00C
:101900000E94EE03882329F48EEE90E00E948F0A55
:10191000FFCF81EE90E00E948F0A10927A0387E653
:1019200093E00E949A0B0F900F90CF91DF911F913F
:1019300008950E94120D0E94FA0B0E948D0BFDCF9C
:101940001F920F920FB60F9211242F933F938F93F4
:101950009F93AF93BF938091B0039091B103A091F7
:10196000B203B091B3033091B4030196A11DB11D30
:10197000232F2D5F2D3720F02D570196A11DB11D6E
:101980002093B4038093B0039093B103A093B20368
:10199000B093B3038091AC039091AD03A091AE03DB
:1019A000B091AF030196A11DB11D8093AC0390933C
:1019B000AD03A093AE03B093AF03BF91AF919F91DE
:1019C0008F913F912F910F900FBE0F901F90189500
:1019D000EF92FF920F931F937B018C018FB7F894C6
:1019E0004091B0035091B1036091B2037091B30381
:1019F0008FBF2FB7F8948091B0039091B103A0915D
:101A0000B203B091B3032FBF841B950BA60BB70B8A
:101A1000E816F9060A071B0760F71F910F91FF9060
:101A2000EF900895789484B5826084BD84B5816018
:101A300084BD85B5826085BD85B5816085BDEEE6D6
:101A4000F0E0808181608083E1E8F0E08081826065
:101A50008083808181608083E0E8F0E08081816024
:101A60008083E1EBF0E0808184608083E0EBF0E054
:101A7000808181608083EAE7F0E0808184608083F8
:101A800080818260808380818160808380818068A2
:101A900080831092C1000895282F30E0C90181533E
:101AA0009E4FFC01949125543E4FF9018491882367
:101AB00091F0E82FF0E0EE0FFF1FE356FE4FA591E7
:101AC000B491662329F48C91909589238C93089581
:101AD0008C91892B8C930895482F50E0CA018D5129
:101AE0009E4FFC012491CA0181539E4FFC019491A9
:101AF00045545E4FFA0134913323D1F1222331F161
:101B0000233021F4809180008F7705C0243031F498
:101B1000809180008F7D8093800018C0213019F45F
:101B200084B58F7704C0223021F484B58F7D84BDC5
:101B30000DC0263021F48091B0008F7705C027308A
:101B400029F48091B0008F7D8093B000E32FF0E006
:101B5000EE0FFF1FE955FE4FA591B491662329F4BE
:101B60008C91909589238C9308958C91892B8C93DB
:101B700008951F920F920FB60F9211242F933F9347
:101B80004F935F936F937F938F939F93AF93BF9385
:101B9000EF93FF934091C600E0913504F091360435
:101BA000CF01019660E870E00E94BB109C0180911B
:101BB0003704909138042817390739F0EB54FC4F5B
:101BC00040833093360420933504FF91EF91BF9109
:101BD000AF919F918F917F916F915F914F913F91C5
:101BE0002F910F900FBE0F901F9018955F926F92DC
:101BF0007F928F929F92AF92BF92CF92DF92EF929D
:101C0000FF920F931F93CF93DF93EC013A014B01A7
:101C1000413482E458078FE0680780E078070CF0D1
:101C20007FC060E874E88EE190E0A40193010E9417
:101C3000F0102150304040405040CA01B90122E02C
:101C400030E040E050E00E94F01059016A01A60126
:101C50009501209530954095509594E0220F331FC3
:101C6000441F551F9A95D1F760E074E284EF90E02D
:101C70000E94F010CA01B9012FEF30E040E050E0BF
:101C80000E949C10A40193010E94F010C901815090
:101C90009F4F181619061CF4522E5A9403C055244F
:101CA0005394521A60E079E08DE390E0A40193012F
:101CB0000E94F0102150304040405040CA01B9010C
:101CC00022E030E040E050E00E94F0102095309596
:101CD0004095509583E0220F331F441F551F8A956E
:101CE000D1F760E074E284EF90E00E94F010CA0146
:101CF000B9012FEF30E040E050E00E949C10A401B9
:101D000093010E94F010C90181509F4F18161906C7
:101D10001CF4822F815002C081E0821B851500F5E2
:101D2000E885F98581E090E00A8802C0880F991F54
:101D30000A94E2F7808360E079E08DE390E0A4010B
:101D400093010E94F0102150304040405040CA01A1
:101D5000B90122E030E040E050E00E94F01004C001
:101D6000E885F98510829501EC81FD813083EE8153
:101D7000FF812083EA85FB85208141E050E0CA0194
:101D80000E8402C0880F991F0A94E2F7282B208343
:101D9000EA85FB852081CA010F8402C0880F991F44
:101DA0000A94E2F7282B2083EA85FB858081088846
:101DB00002C0440F551F0A94E2F7842B8083DF9101
:101DC000CF911F910F91FF90EF90DF90CF90BF9038
:101DD000AF909F908F907F906F905F900895FC01DF
:101DE000A085B18521898C9190E0022E02C0959545
:101DF00087950A94E2F780FFF6CF0484F585E02DFD
:101E00006083089589E291E090933A0480933904C5
:101E100085EB93E090933C0480933B0485EC90E049
:101E200090933E0480933D0484EC90E090934004B2
:101E300080933F0480EC90E09093420480934104AF
:101E400081EC90E0909344048093430486EC90E00E
:101E5000909346048093450484E08093470483E094
:101E60008093480487E08093490485E080934A0486
:101E700081E080934B0408950F931F93CF93DF93DA
:101E80008C01EB0109C02196D801ED91FC910190E4
:101E9000F081E02DC801099568816623A1F7DF91E3
:101EA000CF911F910F910895EF92FF920F931F937F
:101EB000CF93DF938C017B01EA010CC0D7016D91B8
:101EC0007D01D801ED91FC910190F081E02DC801D8
:101ED00009952197209791F7DF91CF911F910F914D
:101EE000FF90EF900895DC01ED91FC910190F0815D
:101EF000E02D09950895DC01ED91FC910190F081B0
:101F0000E02D09950895DC01ED91FC910280F381AB
:101F1000E02D099508950F931F938C01DC01ED913D
:101F2000FC910190F081E02D6DE00995D801ED91D3
:101F3000FC910190F081E02DC8016AE009951F91A4
:101F40000F9108950F931F938C010E94830FC80176
:101F50000E948B0F1F910F9108952F923F924F92E5
:101F60005F926F927F928F929F92AF92BF92CF9229
:101F7000DF92EF92FF920F931F93DF93CF93CDB732
:101F8000DEB7A0970FB6F894DEBF0FBECDBF1C0121
:101F90006A017B01411551056105710549F4DC01B8
:101FA000ED91FC910190F081E02D60E3099554C022
:101FB000882499245401422E55246624772401E074
:101FC00010E00C0F1D1F080D191DC701B601A3015C
:101FD00092010E94CE10F80160830894811C911C2C
:101FE000A11CB11CC701B601A30192010E94CE1031
:101FF000C901DA016C017D01C114D104E104F104CD
:10200000F1F681E0E82EF12CEC0EFD1EE80CF91C37
:102010003E010894611C711CD501C4010197A109FE
:10202000B1096C01C818D90814C0F601EE0DFF1DE6
:1020300060816A3010F4605D01C0695CD101ED918E
:10204000FC910190F081E02DC10109950894E1080F
:10205000F1086E147F0449F7A0960FB6F894DEBF1E
:102060000FBECDBFCF91DF911F910F91FF90EF90E9
:10207000DF90CF90BF90AF909F908F907F906F90A8
:102080005F904F903F902F900895EF92FF920F93A3
:102090001F93CF93DF93EC017A018B0177FF0FC081
:1020A000E881F9810190F081E02D6DE209951095AC
:1020B0000095F094E094E11CF11C011D111DCE016E
:1020C000B801A7012AE00E94AD0FDF91CF911F91C7
:1020D0000F91FF90EF9008950F931F938C01AB0128
:1020E000662757FD6095762F0E944510C8010E9413
:1020F0008B0F1F910F910895DC012115310541F4DB
:10210000ED91FC910190F081E02D642F09950895E7
:102110002A30310519F40E94451008950E94AD0F30
:1021200008950F931F938C010E947C10C8010E9498
:102130008B0F1F910F910895629FD001739FF00143
:10214000829FE00DF11D649FE00DF11D929FF00D47
:10215000839FF00D749FF00D659FF00D9927729F7E
:10216000B00DE11DF91F639FB00DE11DF91FBD0109
:10217000CF011124089597FB092E07260AD077FD79
:1021800004D049D006D000201AF4709561957F4F95
:102190000895F6F7909581959F4F0895A1E21A2E24
:1021A000AA1BBB1BFD010DC0AA1FBB1FEE1FFF1FFB
:1021B000A217B307E407F50720F0A21BB30BE40B4B
:1021C000F50B661F771F881F991F1A9469F7609592
:1021D0007095809590959B01AC01BD01CF0108954C
:1021E00097FB092E05260ED057FD04D0D7DF0AD065
:1021F000001C38F450954095309521953F4F4F4F36
:102200005F4F0895F6F790958095709561957F4F93
:102210008F4F9F4F0895AA1BBB1B51E107C0AA1FF8
:10222000BB1FA617B70710F0A61BB70B881F991F77
:102230005A95A9F780959095BC01CD010895EE0FB0
:0E224000FF1F0590F491E02D0994F894FFCF54
:10224E006461746100524946460057415645006626
:10225E006D74200066696C652E6F70656E20666108
:10226E00696C65640000000000EF0E3C0F540F0017
:00000001FF
